{
  "contractName": "Contrato",
  "abi": [
    {
      "anonymous": false,
      "inputs": [
        {
          "indexed": true,
          "internalType": "address",
          "name": "medAddress",
          "type": "address"
        },
        {
          "indexed": false,
          "internalType": "string",
          "name": "_nombreM",
          "type": "string"
        },
        {
          "indexed": false,
          "internalType": "string",
          "name": "_apellidosM",
          "type": "string"
        },
        {
          "indexed": false,
          "internalType": "string",
          "name": "_telefonoM",
          "type": "string"
        },
        {
          "indexed": false,
          "internalType": "address",
          "name": "_adressM",
          "type": "address"
        },
        {
          "indexed": false,
          "internalType": "string",
          "name": "_correoM",
          "type": "string"
        },
        {
          "indexed": false,
          "internalType": "string",
          "name": "_passM",
          "type": "string"
        },
        {
          "indexed": false,
          "internalType": "string",
          "name": "_idM",
          "type": "string"
        },
        {
          "indexed": false,
          "internalType": "string",
          "name": "_espM",
          "type": "string"
        }
      ],
      "name": "MedAdded",
      "type": "event"
    },
    {
      "anonymous": false,
      "inputs": [
        {
          "indexed": true,
          "internalType": "address",
          "name": "patientAddress",
          "type": "address"
        },
        {
          "indexed": false,
          "internalType": "string",
          "name": "_nombreP",
          "type": "string"
        },
        {
          "indexed": false,
          "internalType": "string",
          "name": "_apellidosP",
          "type": "string"
        },
        {
          "indexed": false,
          "internalType": "string",
          "name": "_telefonoP",
          "type": "string"
        },
        {
          "indexed": false,
          "internalType": "address",
          "name": "_adressP",
          "type": "address"
        },
        {
          "indexed": false,
          "internalType": "string",
          "name": "_correoP",
          "type": "string"
        },
        {
          "indexed": false,
          "internalType": "string",
          "name": "_passP",
          "type": "string"
        }
      ],
      "name": "PatientAdded",
      "type": "event"
    },
    {
      "inputs": [
        {
          "internalType": "address",
          "name": "",
          "type": "address"
        }
      ],
      "name": "patients",
      "outputs": [
        {
          "internalType": "string",
          "name": "nombreP",
          "type": "string"
        },
        {
          "internalType": "string",
          "name": "apellidosP",
          "type": "string"
        },
        {
          "internalType": "string",
          "name": "telefonoP",
          "type": "string"
        },
        {
          "internalType": "address",
          "name": "adressP",
          "type": "address"
        },
        {
          "internalType": "string",
          "name": "correoP",
          "type": "string"
        },
        {
          "internalType": "string",
          "name": "passP",
          "type": "string"
        },
        {
          "internalType": "bool",
          "name": "registradoP",
          "type": "bool"
        }
      ],
      "stateMutability": "view",
      "type": "function",
      "constant": true
    },
    {
      "inputs": [
        {
          "internalType": "address",
          "name": "_adressP",
          "type": "address"
        },
        {
          "internalType": "address",
          "name": "_adressM",
          "type": "address"
        },
        {
          "internalType": "string",
          "name": "_patientName",
          "type": "string"
        },
        {
          "internalType": "uint256",
          "name": "_age",
          "type": "uint256"
        },
        {
          "internalType": "string",
          "name": "_diagnosis",
          "type": "string"
        },
        {
          "internalType": "string",
          "name": "_treatment",
          "type": "string"
        },
        {
          "internalType": "string",
          "name": "_date",
          "type": "string"
        },
        {
          "internalType": "string",
          "name": "_fileHash",
          "type": "string"
        }
      ],
      "name": "addRecord",
      "outputs": [],
      "stateMutability": "nonpayable",
      "type": "function"
    },
    {
      "inputs": [
        {
          "internalType": "address",
          "name": "_adressP",
          "type": "address"
        }
      ],
      "name": "getRecords",
      "outputs": [
        {
          "components": [
            {
              "internalType": "address",
              "name": "adressP",
              "type": "address"
            },
            {
              "internalType": "address",
              "name": "adressM",
              "type": "address"
            },
            {
              "internalType": "string",
              "name": "patientName",
              "type": "string"
            },
            {
              "internalType": "uint256",
              "name": "age",
              "type": "uint256"
            },
            {
              "internalType": "string",
              "name": "diagnosis",
              "type": "string"
            },
            {
              "internalType": "string",
              "name": "treatment",
              "type": "string"
            },
            {
              "internalType": "string",
              "name": "date",
              "type": "string"
            },
            {
              "internalType": "string",
              "name": "fileHash",
              "type": "string"
            }
          ],
          "internalType": "struct Contrato.MedicalRecord[]",
          "name": "",
          "type": "tuple[]"
        }
      ],
      "stateMutability": "view",
      "type": "function",
      "constant": true
    },
    {
      "inputs": [
        {
          "internalType": "string",
          "name": "_nombreP",
          "type": "string"
        },
        {
          "internalType": "string",
          "name": "_apellidosP",
          "type": "string"
        },
        {
          "internalType": "string",
          "name": "_telefonoP",
          "type": "string"
        },
        {
          "internalType": "address",
          "name": "_adressP",
          "type": "address"
        },
        {
          "internalType": "string",
          "name": "_correoP",
          "type": "string"
        },
        {
          "internalType": "string",
          "name": "_passP",
          "type": "string"
        }
      ],
      "name": "addPatient",
      "outputs": [],
      "stateMutability": "nonpayable",
      "type": "function"
    },
    {
      "inputs": [
        {
          "internalType": "address",
          "name": "_patientAddress",
          "type": "address"
        }
      ],
      "name": "patientExists",
      "outputs": [
        {
          "internalType": "bool",
          "name": "",
          "type": "bool"
        }
      ],
      "stateMutability": "view",
      "type": "function",
      "constant": true
    },
    {
      "inputs": [
        {
          "internalType": "address",
          "name": "_adress",
          "type": "address"
        },
        {
          "internalType": "string",
          "name": "_pass",
          "type": "string"
        }
      ],
      "name": "loginPatient",
      "outputs": [
        {
          "internalType": "bool",
          "name": "",
          "type": "bool"
        }
      ],
      "stateMutability": "nonpayable",
      "type": "function"
    },
    {
      "inputs": [
        {
          "internalType": "address",
          "name": "_patient",
          "type": "address"
        }
      ],
      "name": "getPatientInfo",
      "outputs": [
        {
          "internalType": "string",
          "name": "",
          "type": "string"
        },
        {
          "internalType": "string",
          "name": "",
          "type": "string"
        },
        {
          "internalType": "string",
          "name": "",
          "type": "string"
        },
        {
          "internalType": "address",
          "name": "",
          "type": "address"
        },
        {
          "internalType": "string",
          "name": "",
          "type": "string"
        },
        {
          "internalType": "string",
          "name": "",
          "type": "string"
        }
      ],
      "stateMutability": "view",
      "type": "function",
      "constant": true
    },
    {
      "inputs": [
        {
          "internalType": "string",
          "name": "_nombreM",
          "type": "string"
        },
        {
          "internalType": "string",
          "name": "_apellidosM",
          "type": "string"
        },
        {
          "internalType": "string",
          "name": "_telefonoM",
          "type": "string"
        },
        {
          "internalType": "address",
          "name": "_adressM",
          "type": "address"
        },
        {
          "internalType": "string",
          "name": "_correoM",
          "type": "string"
        },
        {
          "internalType": "string",
          "name": "_passM",
          "type": "string"
        },
        {
          "internalType": "string",
          "name": "_idM",
          "type": "string"
        },
        {
          "internalType": "string",
          "name": "_espM",
          "type": "string"
        }
      ],
      "name": "addMed",
      "outputs": [],
      "stateMutability": "nonpayable",
      "type": "function"
    },
    {
      "inputs": [
        {
          "internalType": "address",
          "name": "_patientAddress",
          "type": "address"
        }
      ],
      "name": "medExists",
      "outputs": [
        {
          "internalType": "bool",
          "name": "",
          "type": "bool"
        }
      ],
      "stateMutability": "view",
      "type": "function",
      "constant": true
    },
    {
      "inputs": [
        {
          "internalType": "address",
          "name": "_adress",
          "type": "address"
        },
        {
          "internalType": "string",
          "name": "_pass",
          "type": "string"
        }
      ],
      "name": "loginMed",
      "outputs": [
        {
          "internalType": "bool",
          "name": "",
          "type": "bool"
        }
      ],
      "stateMutability": "nonpayable",
      "type": "function"
    },
    {
      "inputs": [
        {
          "internalType": "address",
          "name": "_med",
          "type": "address"
        }
      ],
      "name": "getMedInfo",
      "outputs": [
        {
          "internalType": "string",
          "name": "",
          "type": "string"
        },
        {
          "internalType": "string",
          "name": "",
          "type": "string"
        },
        {
          "internalType": "string",
          "name": "",
          "type": "string"
        },
        {
          "internalType": "address",
          "name": "",
          "type": "address"
        },
        {
          "internalType": "string",
          "name": "",
          "type": "string"
        },
        {
          "internalType": "string",
          "name": "",
          "type": "string"
        },
        {
          "internalType": "string",
          "name": "",
          "type": "string"
        },
        {
          "internalType": "string",
          "name": "",
          "type": "string"
        }
      ],
      "stateMutability": "view",
      "type": "function",
      "constant": true
    },
    {
      "inputs": [
        {
          "internalType": "string",
          "name": "_idM",
          "type": "string"
        }
      ],
      "name": "checkID",
      "outputs": [
        {
          "internalType": "bool",
          "name": "",
          "type": "bool"
        }
      ],
      "stateMutability": "view",
      "type": "function",
      "constant": true
    }
  ],
  "bytecode": "0x60806040526040518060a001604052806040518060400160405280600481526020017f505330310000000000000000000000000000000000000000000000000000000081525081526020016040518060400160405280600481526020017f505330320000000000000000000000000000000000000000000000000000000081525081526020016040518060400160405280600481526020017f505330330000000000000000000000000000000000000000000000000000000081525081526020016040518060400160405280600481526020017f505330340000000000000000000000000000000000000000000000000000000081525081526020016040518060400160405280600481526020017f50533035000000000000000000000000000000000000000000000000000000008152508152506000906005620001469291906200015b565b503480156200015457600080fd5b50620005a9565b828054828255906000526020600020908101928215620001a8579160200282015b82811115620001a7578251829081620001969190620004c2565b50916020019190600101906200017c565b5b509050620001b79190620001bb565b5090565b5b80821115620001df5760008181620001d59190620001e3565b50600101620001bc565b5090565b508054620001f190620002b1565b6000825580601f1062000205575062000226565b601f01602090049060005260206000209081019062000225919062000229565b5b50565b5b80821115620002445760008160009055506001016200022a565b5090565b600081519050919050565b7f4e487b7100000000000000000000000000000000000000000000000000000000600052604160045260246000fd5b7f4e487b7100000000000000000000000000000000000000000000000000000000600052602260045260246000fd5b60006002820490506001821680620002ca57607f821691505b602082108103620002e057620002df62000282565b5b50919050565b60008190508160005260206000209050919050565b60006020601f8301049050919050565b600082821b905092915050565b6000600883026200034a7fffffffffffffffffffffffffffffffffffffffffffffffffffffffffffffffff826200030b565b6200035686836200030b565b95508019841693508086168417925050509392505050565b6000819050919050565b6000819050919050565b6000620003a36200039d62000397846200036e565b62000378565b6200036e565b9050919050565b6000819050919050565b620003bf8362000382565b620003d7620003ce82620003aa565b84845462000318565b825550505050565b600090565b620003ee620003df565b620003fb818484620003b4565b505050565b5b81811015620004235762000417600082620003e4565b60018101905062000401565b5050565b601f82111562000472576200043c81620002e6565b6200044784620002fb565b8101602085101562000457578190505b6200046f6200046685620002fb565b83018262000400565b50505b505050565b600082821c905092915050565b6000620004976000198460080262000477565b1980831691505092915050565b6000620004b2838362000484565b9150826002028217905092915050565b620004cd8262000248565b67ffffffffffffffff811115620004e957620004e862000253565b5b620004f58254620002b1565b6200050282828562000427565b600060209050601f8311600181146200053a576000841562000525578287015190505b620005318582620004a4565b865550620005a1565b601f1984166200054a86620002e6565b60005b8281101562000574578489015182556001820191506020850194506020810190506200054d565b8683101562000594578489015162000590601f89168262000484565b8355505b6001600288020188555050505b505050505050565b6134a480620005b96000396000f3fe608060405234801561001057600080fd5b50600436106100b45760003560e01c80636186d417116100715780636186d417146101d75780638ca8e40c1461020757806398358c8814610223578063a0076e8414610253578063d2927bcb14610283578063fbbc6dd91461029f576100b4565b80630869cfbc146100b95780632900ed00146100ef5780632ff650c21461012657806336613044146101565780634b4261781461017257806351710f03146101a7575b600080fd5b6100d360048036038101906100ce919061216a565b6102cf565b6040516100e69796959493929190612251565b60405180910390f35b6101096004803603810190610104919061216a565b6105e6565b60405161011d9897969594939291906122e3565b60405180910390f35b610140600480360381019061013b91906124c7565b610af5565b60405161014d9190612523565b60405180910390f35b610170600480360381019061016b919061253e565b610d18565b005b61018c6004803603810190610187919061216a565b610f71565b60405161019e96959493929190612657565b60405180910390f35b6101c160048036038101906101bc919061216a565b611348565b6040516101ce9190612523565b60405180910390f35b6101f160048036038101906101ec91906124c7565b6113a1565b6040516101fe9190612523565b60405180910390f35b610221600480360381019061021c9190612711565b6115c4565b005b61023d60048036038101906102389190612853565b61183f565b60405161024a9190612523565b60405180910390f35b61026d6004803603810190610268919061216a565b6118ec565b60405161027a9190612a92565b60405180910390f35b61029d60048036038101906102989190612ab4565b611d1b565b005b6102b960048036038101906102b4919061216a565b61209f565b6040516102c69190612523565b60405180910390f35b60026020528060005260406000206000915090508060000180546102f290612c5d565b80601f016020809104026020016040519081016040528092919081815260200182805461031e90612c5d565b801561036b5780601f106103405761010080835404028352916020019161036b565b820191906000526020600020905b81548152906001019060200180831161034e57829003601f168201915b50505050509080600101805461038090612c5d565b80601f01602080910402602001604051908101604052809291908181526020018280546103ac90612c5d565b80156103f95780601f106103ce576101008083540402835291602001916103f9565b820191906000526020600020905b8154815290600101906020018083116103dc57829003601f168201915b50505050509080600201805461040e90612c5d565b80601f016020809104026020016040519081016040528092919081815260200182805461043a90612c5d565b80156104875780601f1061045c57610100808354040283529160200191610487565b820191906000526020600020905b81548152906001019060200180831161046a57829003601f168201915b5050505050908060030160009054906101000a900473ffffffffffffffffffffffffffffffffffffffff16908060040180546104c290612c5d565b80601f01602080910402602001604051908101604052809291908181526020018280546104ee90612c5d565b801561053b5780601f106105105761010080835404028352916020019161053b565b820191906000526020600020905b81548152906001019060200180831161051e57829003601f168201915b50505050509080600501805461055090612c5d565b80601f016020809104026020016040519081016040528092919081815260200182805461057c90612c5d565b80156105c95780601f1061059e576101008083540402835291602001916105c9565b820191906000526020600020905b8154815290600101906020018083116105ac57829003601f168201915b5050505050908060060160009054906101000a900460ff16905087565b606080606060006060806060806000600360008b73ffffffffffffffffffffffffffffffffffffffff1673ffffffffffffffffffffffffffffffffffffffff1681526020019081526020016000206040518061012001604052908160008201805461065090612c5d565b80601f016020809104026020016040519081016040528092919081815260200182805461067c90612c5d565b80156106c95780601f1061069e576101008083540402835291602001916106c9565b820191906000526020600020905b8154815290600101906020018083116106ac57829003601f168201915b505050505081526020016001820180546106e290612c5d565b80601f016020809104026020016040519081016040528092919081815260200182805461070e90612c5d565b801561075b5780601f106107305761010080835404028352916020019161075b565b820191906000526020600020905b81548152906001019060200180831161073e57829003601f168201915b5050505050815260200160028201805461077490612c5d565b80601f01602080910402602001604051908101604052809291908181526020018280546107a090612c5d565b80156107ed5780601f106107c2576101008083540402835291602001916107ed565b820191906000526020600020905b8154815290600101906020018083116107d057829003601f168201915b505050505081526020016003820160009054906101000a900473ffffffffffffffffffffffffffffffffffffffff1673ffffffffffffffffffffffffffffffffffffffff1673ffffffffffffffffffffffffffffffffffffffff16815260200160048201805461085c90612c5d565b80601f016020809104026020016040519081016040528092919081815260200182805461088890612c5d565b80156108d55780601f106108aa576101008083540402835291602001916108d5565b820191906000526020600020905b8154815290600101906020018083116108b857829003601f168201915b505050505081526020016005820180546108ee90612c5d565b80601f016020809104026020016040519081016040528092919081815260200182805461091a90612c5d565b80156109675780601f1061093c57610100808354040283529160200191610967565b820191906000526020600020905b81548152906001019060200180831161094a57829003601f168201915b5050505050815260200160068201805461098090612c5d565b80601f01602080910402602001604051908101604052809291908181526020018280546109ac90612c5d565b80156109f95780601f106109ce576101008083540402835291602001916109f9565b820191906000526020600020905b8154815290600101906020018083116109dc57829003601f168201915b50505050508152602001600782018054610a1290612c5d565b80601f0160208091040260200160405190810160405280929190818152602001828054610a3e90612c5d565b8015610a8b5780601f10610a6057610100808354040283529160200191610a8b565b820191906000526020600020905b815481529060010190602001808311610a6e57829003601f168201915b505050505081526020016008820160009054906101000a900460ff1615151515815250509050806000015181602001518260400151836060015184608001518560a001518660c001518760e001519850985098509850985098509850985050919395975091939597565b600081604051602001610b089190612cca565b60405160208183030381529060405280519060200120600260008573ffffffffffffffffffffffffffffffffffffffff1673ffffffffffffffffffffffffffffffffffffffff168152602001908152602001600020600501604051602001610b709190612d79565b6040516020818303038152906040528051906020012014610bc6576040517f08c379a0000000000000000000000000000000000000000000000000000000008152600401610bbd90612ddc565b60405180910390fd5b82604051602001610bd79190612e44565b60405160208183030381529060405280519060200120600260008573ffffffffffffffffffffffffffffffffffffffff1673ffffffffffffffffffffffffffffffffffffffff16815260200190815260200160002060030160009054906101000a900473ffffffffffffffffffffffffffffffffffffffff16604051602001610c609190612e44565b6040516020818303038152906040528051906020012014610cb6576040517f08c379a0000000000000000000000000000000000000000000000000000000008152600401610cad90612ddc565b60405180910390fd5b6001600460003373ffffffffffffffffffffffffffffffffffffffff1673ffffffffffffffffffffffffffffffffffffffff16815260200190815260200160002060006101000a81548160ff0219169083151502179055506001905092915050565b600260008473ffffffffffffffffffffffffffffffffffffffff1673ffffffffffffffffffffffffffffffffffffffff16815260200190815260200160002060060160009054906101000a900460ff1615610da8576040517f08c379a0000000000000000000000000000000000000000000000000000000008152600401610d9f90612ef7565b60405180910390fd5b60006040518060e001604052808881526020018781526020018681526020018573ffffffffffffffffffffffffffffffffffffffff16815260200184815260200183815260200160011515815250905080600260003373ffffffffffffffffffffffffffffffffffffffff1673ffffffffffffffffffffffffffffffffffffffff1681526020019081526020016000206000820151816000019081610e4d91906130ae565b506020820151816001019081610e6391906130ae565b506040820151816002019081610e7991906130ae565b5060608201518160030160006101000a81548173ffffffffffffffffffffffffffffffffffffffff021916908373ffffffffffffffffffffffffffffffffffffffff1602179055506080820151816004019081610ed691906130ae565b5060a0820151816005019081610eec91906130ae565b5060c08201518160060160006101000a81548160ff0219169083151502179055509050503373ffffffffffffffffffffffffffffffffffffffff167f356d59a8d1aab1bf7f5712305ebf753c65a0a1d438bc71c919cb1f14905dff54888888888888604051610f6096959493929190612657565b60405180910390a250505050505050565b606080606060006060806000600260008973ffffffffffffffffffffffffffffffffffffffff1673ffffffffffffffffffffffffffffffffffffffff1681526020019081526020016000206040518060e0016040529081600082018054610fd790612c5d565b80601f016020809104026020016040519081016040528092919081815260200182805461100390612c5d565b80156110505780601f1061102557610100808354040283529160200191611050565b820191906000526020600020905b81548152906001019060200180831161103357829003601f168201915b5050505050815260200160018201805461106990612c5d565b80601f016020809104026020016040519081016040528092919081815260200182805461109590612c5d565b80156110e25780601f106110b7576101008083540402835291602001916110e2565b820191906000526020600020905b8154815290600101906020018083116110c557829003601f168201915b505050505081526020016002820180546110fb90612c5d565b80601f016020809104026020016040519081016040528092919081815260200182805461112790612c5d565b80156111745780601f1061114957610100808354040283529160200191611174565b820191906000526020600020905b81548152906001019060200180831161115757829003601f168201915b505050505081526020016003820160009054906101000a900473ffffffffffffffffffffffffffffffffffffffff1673ffffffffffffffffffffffffffffffffffffffff1673ffffffffffffffffffffffffffffffffffffffff1681526020016004820180546111e390612c5d565b80601f016020809104026020016040519081016040528092919081815260200182805461120f90612c5d565b801561125c5780601f106112315761010080835404028352916020019161125c565b820191906000526020600020905b81548152906001019060200180831161123f57829003601f168201915b5050505050815260200160058201805461127590612c5d565b80601f01602080910402602001604051908101604052809291908181526020018280546112a190612c5d565b80156112ee5780601f106112c3576101008083540402835291602001916112ee565b820191906000526020600020905b8154815290600101906020018083116112d157829003601f168201915b505050505081526020016006820160009054906101000a900460ff1615151515815250509050806000015181602001518260400151836060015184608001518560a001519650965096509650965096505091939550919395565b6000600260008373ffffffffffffffffffffffffffffffffffffffff1673ffffffffffffffffffffffffffffffffffffffff16815260200190815260200160002060060160009054906101000a900460ff169050919050565b6000816040516020016113b49190612cca565b60405160208183030381529060405280519060200120600360008573ffffffffffffffffffffffffffffffffffffffff1673ffffffffffffffffffffffffffffffffffffffff16815260200190815260200160002060050160405160200161141c9190612d79565b6040516020818303038152906040528051906020012014611472576040517f08c379a000000000000000000000000000000000000000000000000000000000815260040161146990612ddc565b60405180910390fd5b826040516020016114839190612e44565b60405160208183030381529060405280519060200120600360008573ffffffffffffffffffffffffffffffffffffffff1673ffffffffffffffffffffffffffffffffffffffff16815260200190815260200160002060030160009054906101000a900473ffffffffffffffffffffffffffffffffffffffff1660405160200161150c9190612e44565b6040516020818303038152906040528051906020012014611562576040517f08c379a000000000000000000000000000000000000000000000000000000000815260040161155990612ddc565b60405180910390fd5b6001600560003373ffffffffffffffffffffffffffffffffffffffff1673ffffffffffffffffffffffffffffffffffffffff16815260200190815260200160002060006101000a81548160ff0219169083151502179055506001905092915050565b600260008973ffffffffffffffffffffffffffffffffffffffff1673ffffffffffffffffffffffffffffffffffffffff16815260200190815260200160002060060160009054906101000a900460ff16156117fa5760006040518061010001604052808a73ffffffffffffffffffffffffffffffffffffffff1681526020018973ffffffffffffffffffffffffffffffffffffffff168152602001888152602001878152602001868152602001858152602001848152602001838152509050600160008a73ffffffffffffffffffffffffffffffffffffffff1673ffffffffffffffffffffffffffffffffffffffff16815260200190815260200160002081908060018154018082558091505060019003906000526020600020906008020160009091909190915060008201518160000160006101000a81548173ffffffffffffffffffffffffffffffffffffffff021916908373ffffffffffffffffffffffffffffffffffffffff16021790555060208201518160010160006101000a81548173ffffffffffffffffffffffffffffffffffffffff021916908373ffffffffffffffffffffffffffffffffffffffff160217905550604082015181600201908161178f91906130ae565b506060820151816003015560808201518160040190816117af91906130ae565b5060a08201518160050190816117c591906130ae565b5060c08201518160060190816117db91906130ae565b5060e08201518160070190816117f191906130ae565b50505050611835565b6040517f08c379a000000000000000000000000000000000000000000000000000000000815260040161182c90613218565b60405180910390fd5b5050505050505050565b600080600090505b6000805490508110156118e1576000818154811061186857611867613238565b5b906000526020600020016040516020016118829190612d79565b60405160208183030381529060405280519060200120836040516020016118a99190612cca565b60405160208183030381529060405280519060200120036118ce5760019150506118e7565b80806118d990613296565b915050611847565b50600090505b919050565b6060600160008373ffffffffffffffffffffffffffffffffffffffff1673ffffffffffffffffffffffffffffffffffffffff168152602001908152602001600020805480602002602001604051908101604052809291908181526020016000905b82821015611d105783829060005260206000209060080201604051806101000160405290816000820160009054906101000a900473ffffffffffffffffffffffffffffffffffffffff1673ffffffffffffffffffffffffffffffffffffffff1673ffffffffffffffffffffffffffffffffffffffff1681526020016001820160009054906101000a900473ffffffffffffffffffffffffffffffffffffffff1673ffffffffffffffffffffffffffffffffffffffff1673ffffffffffffffffffffffffffffffffffffffff168152602001600282018054611a2d90612c5d565b80601f0160208091040260200160405190810160405280929190818152602001828054611a5990612c5d565b8015611aa65780601f10611a7b57610100808354040283529160200191611aa6565b820191906000526020600020905b815481529060010190602001808311611a8957829003601f168201915b5050505050815260200160038201548152602001600482018054611ac990612c5d565b80601f0160208091040260200160405190810160405280929190818152602001828054611af590612c5d565b8015611b425780601f10611b1757610100808354040283529160200191611b42565b820191906000526020600020905b815481529060010190602001808311611b2557829003601f168201915b50505050508152602001600582018054611b5b90612c5d565b80601f0160208091040260200160405190810160405280929190818152602001828054611b8790612c5d565b8015611bd45780601f10611ba957610100808354040283529160200191611bd4565b820191906000526020600020905b815481529060010190602001808311611bb757829003601f168201915b50505050508152602001600682018054611bed90612c5d565b80601f0160208091040260200160405190810160405280929190818152602001828054611c1990612c5d565b8015611c665780601f10611c3b57610100808354040283529160200191611c66565b820191906000526020600020905b815481529060010190602001808311611c4957829003601f168201915b50505050508152602001600782018054611c7f90612c5d565b80601f0160208091040260200160405190810160405280929190818152602001828054611cab90612c5d565b8015611cf85780601f10611ccd57610100808354040283529160200191611cf8565b820191906000526020600020905b815481529060010190602001808311611cdb57829003601f168201915b5050505050815250508152602001906001019061194d565b505050509050919050565b600360008673ffffffffffffffffffffffffffffffffffffffff1673ffffffffffffffffffffffffffffffffffffffff16815260200190815260200160002060080160009054906101000a900460ff1615611dab576040517f08c379a0000000000000000000000000000000000000000000000000000000008152600401611da290613376565b60405180910390fd5b611db48261183f565b611df3576040517f08c379a0000000000000000000000000000000000000000000000000000000008152600401611dea906133e2565b60405180910390fd5b600682604051611e039190612cca565b908152602001604051809103902060009054906101000a900460ff1615611e5f576040517f08c379a0000000000000000000000000000000000000000000000000000000008152600401611e569061344e565b60405180910390fd5b6001600683604051611e719190612cca565b908152602001604051809103902060006101000a81548160ff02191690831515021790555060006040518061012001604052808a81526020018981526020018881526020018773ffffffffffffffffffffffffffffffffffffffff16815260200186815260200185815260200184815260200183815260200160011515815250905080600360003373ffffffffffffffffffffffffffffffffffffffff1673ffffffffffffffffffffffffffffffffffffffff1681526020019081526020016000206000820151816000019081611f4891906130ae565b506020820151816001019081611f5e91906130ae565b506040820151816002019081611f7491906130ae565b5060608201518160030160006101000a81548173ffffffffffffffffffffffffffffffffffffffff021916908373ffffffffffffffffffffffffffffffffffffffff1602179055506080820151816004019081611fd191906130ae565b5060a0820151816005019081611fe791906130ae565b5060c0820151816006019081611ffd91906130ae565b5060e082015181600701908161201391906130ae565b506101008201518160080160006101000a81548160ff0219169083151502179055509050503373ffffffffffffffffffffffffffffffffffffffff167f618af81ee8ab9d4da14c13a91ade4243f53240db6ea00b5161d3d8d47ffb1efb8a8a8a8a8a8a8a8a60405161208c9897969594939291906122e3565b60405180910390a2505050505050505050565b6000600360008373ffffffffffffffffffffffffffffffffffffffff1673ffffffffffffffffffffffffffffffffffffffff16815260200190815260200160002060080160009054906101000a900460ff169050919050565b6000604051905090565b600080fd5b600080fd5b600073ffffffffffffffffffffffffffffffffffffffff82169050919050565b60006121378261210c565b9050919050565b6121478161212c565b811461215257600080fd5b50565b6000813590506121648161213e565b92915050565b6000602082840312156121805761217f612102565b5b600061218e84828501612155565b91505092915050565b600081519050919050565b600082825260208201905092915050565b60005b838110156121d15780820151818401526020810190506121b6565b60008484015250505050565b6000601f19601f8301169050919050565b60006121f982612197565b61220381856121a2565b93506122138185602086016121b3565b61221c816121dd565b840191505092915050565b6122308161212c565b82525050565b60008115159050919050565b61224b81612236565b82525050565b600060e082019050818103600083015261226b818a6121ee565b9050818103602083015261227f81896121ee565b9050818103604083015261229381886121ee565b90506122a26060830187612227565b81810360808301526122b481866121ee565b905081810360a08301526122c881856121ee565b90506122d760c0830184612242565b98975050505050505050565b60006101008201905081810360008301526122fe818b6121ee565b90508181036020830152612312818a6121ee565b9050818103604083015261232681896121ee565b90506123356060830188612227565b818103608083015261234781876121ee565b905081810360a083015261235b81866121ee565b905081810360c083015261236f81856121ee565b905081810360e083015261238381846121ee565b90509998505050505050505050565b600080fd5b600080fd5b7f4e487b7100000000000000000000000000000000000000000000000000000000600052604160045260246000fd5b6123d4826121dd565b810181811067ffffffffffffffff821117156123f3576123f261239c565b5b80604052505050565b60006124066120f8565b905061241282826123cb565b919050565b600067ffffffffffffffff8211156124325761243161239c565b5b61243b826121dd565b9050602081019050919050565b82818337600083830152505050565b600061246a61246584612417565b6123fc565b90508281526020810184848401111561248657612485612397565b5b612491848285612448565b509392505050565b600082601f8301126124ae576124ad612392565b5b81356124be848260208601612457565b91505092915050565b600080604083850312156124de576124dd612102565b5b60006124ec85828601612155565b925050602083013567ffffffffffffffff81111561250d5761250c612107565b5b61251985828601612499565b9150509250929050565b60006020820190506125386000830184612242565b92915050565b60008060008060008060c0878903121561255b5761255a612102565b5b600087013567ffffffffffffffff81111561257957612578612107565b5b61258589828a01612499565b965050602087013567ffffffffffffffff8111156125a6576125a5612107565b5b6125b289828a01612499565b955050604087013567ffffffffffffffff8111156125d3576125d2612107565b5b6125df89828a01612499565b94505060606125f089828a01612155565b935050608087013567ffffffffffffffff81111561261157612610612107565b5b61261d89828a01612499565b92505060a087013567ffffffffffffffff81111561263e5761263d612107565b5b61264a89828a01612499565b9150509295509295509295565b600060c082019050818103600083015261267181896121ee565b9050818103602083015261268581886121ee565b9050818103604083015261269981876121ee565b90506126a86060830186612227565b81810360808301526126ba81856121ee565b905081810360a08301526126ce81846121ee565b9050979650505050505050565b6000819050919050565b6126ee816126db565b81146126f957600080fd5b50565b60008135905061270b816126e5565b92915050565b600080600080600080600080610100898b03121561273257612731612102565b5b60006127408b828c01612155565b98505060206127518b828c01612155565b975050604089013567ffffffffffffffff81111561277257612771612107565b5b61277e8b828c01612499565b965050606061278f8b828c016126fc565b955050608089013567ffffffffffffffff8111156127b0576127af612107565b5b6127bc8b828c01612499565b94505060a089013567ffffffffffffffff8111156127dd576127dc612107565b5b6127e98b828c01612499565b93505060c089013567ffffffffffffffff81111561280a57612809612107565b5b6128168b828c01612499565b92505060e089013567ffffffffffffffff81111561283757612836612107565b5b6128438b828c01612499565b9150509295985092959890939650565b60006020828403121561286957612868612102565b5b600082013567ffffffffffffffff81111561288757612886612107565b5b61289384828501612499565b91505092915050565b600081519050919050565b600082825260208201905092915050565b6000819050602082019050919050565b6128d18161212c565b82525050565b600082825260208201905092915050565b60006128f382612197565b6128fd81856128d7565b935061290d8185602086016121b3565b612916816121dd565b840191505092915050565b61292a816126db565b82525050565b60006101008301600083015161294960008601826128c8565b50602083015161295c60208601826128c8565b506040830151848203604086015261297482826128e8565b91505060608301516129896060860182612921565b50608083015184820360808601526129a182826128e8565b91505060a083015184820360a08601526129bb82826128e8565b91505060c083015184820360c08601526129d582826128e8565b91505060e083015184820360e08601526129ef82826128e8565b9150508091505092915050565b6000612a088383612930565b905092915050565b6000602082019050919050565b6000612a288261289c565b612a3281856128a7565b935083602082028501612a44856128b8565b8060005b85811015612a805784840389528151612a6185826129fc565b9450612a6c83612a10565b925060208a01995050600181019050612a48565b50829750879550505050505092915050565b60006020820190508181036000830152612aac8184612a1d565b905092915050565b600080600080600080600080610100898b031215612ad557612ad4612102565b5b600089013567ffffffffffffffff811115612af357612af2612107565b5b612aff8b828c01612499565b985050602089013567ffffffffffffffff811115612b2057612b1f612107565b5b612b2c8b828c01612499565b975050604089013567ffffffffffffffff811115612b4d57612b4c612107565b5b612b598b828c01612499565b9650506060612b6a8b828c01612155565b955050608089013567ffffffffffffffff811115612b8b57612b8a612107565b5b612b978b828c01612499565b94505060a089013567ffffffffffffffff811115612bb857612bb7612107565b5b612bc48b828c01612499565b93505060c089013567ffffffffffffffff811115612be557612be4612107565b5b612bf18b828c01612499565b92505060e089013567ffffffffffffffff811115612c1257612c11612107565b5b612c1e8b828c01612499565b9150509295985092959890939650565b7f4e487b7100000000000000000000000000000000000000000000000000000000600052602260045260246000fd5b60006002820490506001821680612c7557607f821691505b602082108103612c8857612c87612c2e565b5b50919050565b600081905092915050565b6000612ca482612197565b612cae8185612c8e565b9350612cbe8185602086016121b3565b80840191505092915050565b6000612cd68284612c99565b915081905092915050565b60008190508160005260206000209050919050565b60008154612d0381612c5d565b612d0d8186612c8e565b94506001821660008114612d285760018114612d3d57612d70565b60ff1983168652811515820286019350612d70565b612d4685612ce1565b60005b83811015612d6857815481890152600182019150602081019050612d49565b838801955050505b50505092915050565b6000612d858284612cf6565b915081905092915050565b7f496e636f727265637420757365726e616d65206f722070617373776f72642e00600082015250565b6000612dc6601f836121a2565b9150612dd182612d90565b602082019050919050565b60006020820190508181036000830152612df581612db9565b9050919050565b60008160601b9050919050565b6000612e1482612dfc565b9050919050565b6000612e2682612e09565b9050919050565b612e3e612e398261212c565b612e1b565b82525050565b6000612e508284612e2d565b60148201915081905092915050565b7f4c6120616464726573642071756520657374617320696e67726573616e646f2060008201527f7961206573746120726567697374726164612c2079612065786973746520657360208201527f74652070616369656e7465000000000000000000000000000000000000000000604082015250565b6000612ee1604b836121a2565b9150612eec82612e5f565b606082019050919050565b60006020820190508181036000830152612f1081612ed4565b9050919050565b60006020601f8301049050919050565b600082821b905092915050565b600060088302612f647fffffffffffffffffffffffffffffffffffffffffffffffffffffffffffffffff82612f27565b612f6e8683612f27565b95508019841693508086168417925050509392505050565b6000819050919050565b6000612fab612fa6612fa1846126db565b612f86565b6126db565b9050919050565b6000819050919050565b612fc583612f90565b612fd9612fd182612fb2565b848454612f34565b825550505050565b600090565b612fee612fe1565b612ff9818484612fbc565b505050565b5b8181101561301d57613012600082612fe6565b600181019050612fff565b5050565b601f8211156130625761303381612ce1565b61303c84612f17565b8101602085101561304b578190505b61305f61305785612f17565b830182612ffe565b50505b505050565b600082821c905092915050565b600061308560001984600802613067565b1980831691505092915050565b600061309e8383613074565b9150826002028217905092915050565b6130b782612197565b67ffffffffffffffff8111156130d0576130cf61239c565b5b6130da8254612c5d565b6130e5828285613021565b600060209050601f8311600181146131185760008415613106578287015190505b6131108582613092565b865550613178565b601f19841661312686612ce1565b60005b8281101561314e57848901518255600182019150602085019450602081019050613129565b8683101561316b5784890151613167601f891682613074565b8355505b6001600288020188555050505b505050505050565b7f4c6120616464726573642071756520657374617320696e67726573616e646f2060008201527f6e6f206573746120726567697374726164612c20656c2070616369656e74652060208201527f6e6f206578697374650000000000000000000000000000000000000000000000604082015250565b60006132026049836121a2565b915061320d82613180565b606082019050919050565b60006020820190508181036000830152613231816131f5565b9050919050565b7f4e487b7100000000000000000000000000000000000000000000000000000000600052603260045260246000fd5b7f4e487b7100000000000000000000000000000000000000000000000000000000600052601160045260246000fd5b60006132a1826126db565b91507fffffffffffffffffffffffffffffffffffffffffffffffffffffffffffffffff82036132d3576132d2613267565b5b600182019050919050565b7f4c6120616464726573642071756520657374617320696e67726573616e646f2060008201527f7961206573746120726567697374726164612c2079612065786973746520657360208201527f7465206d656469636f0000000000000000000000000000000000000000000000604082015250565b60006133606049836121a2565b915061336b826132de565b606082019050919050565b6000602082019050818103600083015261338f81613353565b9050919050565b7f456c20696420646520656d706c6561646f206e6f206578697374650000000000600082015250565b60006133cc601b836121a2565b91506133d782613396565b602082019050919050565b600060208201905081810360008301526133fb816133bf565b9050919050565b7f45737465206964207961206573746120656e2075736f00000000000000000000600082015250565b60006134386016836121a2565b915061344382613402565b602082019050919050565b600060208201905081810360008301526134678161342b565b905091905056fea26469706673582212202a09639f217878cf00e310ada4dfc3b4c4f02ed9516635424c736be62b92621f64736f6c63430008110033",
  "immutableReferences": {},
  "source": "//SPDX-License-Identifier: MIT\r\npragma solidity >=0.4.22 <0.9.0;\r\n\r\ncontract Contrato {\r\n//------------------------------------declaracion de estructuras para variables\r\n    struct MedicalRecord {\r\n        address adressP;\r\n        address adressM;\r\n        string patientName;\r\n        uint age;\r\n        string diagnosis;\r\n        string treatment;\r\n        string date;\r\n        string fileHash;\r\n    }\r\n    struct Patient {\r\n        string   nombreP;\r\n        string   apellidosP;\r\n        string   telefonoP;\r\n        address   adressP;\r\n        string   correoP;\r\n        string   passP;\r\n        bool registradoP;\r\n    }\r\n    struct Med {\r\n        string   nombreM;\r\n        string   apellidosM;\r\n        string   telefonoM;\r\n        address   adressM;\r\n        string   correoM;\r\n        string   passM;\r\n        string    idM;\r\n        string   espM;\r\n        bool registradoM;\r\n    }\r\n\r\n    string[] authorizedIDs = [\"PS01\",\"PS02\",\"PS03\",\"PS04\",\"PS05\"];\r\n\r\n//-------------------------------------------------------- Mapeo \r\n    mapping (address => MedicalRecord[]) records;\r\n    mapping (address => Patient) public patients;\r\n    mapping (address => Med) meds;\r\n    mapping(address => bool) authenticatedPatients;\r\n    mapping(address => bool) authenticatedMed;\r\n    mapping(string => bool) idInUse;\r\n\r\n//-----------------------------------------------------Funciones\r\n\r\n\r\n    function addRecord(address _adressP, address _adressM, string memory _patientName, uint _age, string memory _diagnosis, \r\n        string memory _treatment,string memory _date,string memory _fileHash) public {\r\n        if (patients[_adressP].registradoP) {\r\n            MedicalRecord memory newRecord = MedicalRecord({\r\n                                                        adressP: _adressP,\r\n                                                        adressM: _adressM,\r\n                                                        patientName: _patientName,\r\n                                                        age: _age,\r\n                                                        diagnosis: _diagnosis,\r\n                                                        treatment: _treatment,\r\n                                                        date: _date,\r\n                                                        fileHash: _fileHash});\r\n            records[_adressP].push(newRecord);} else {\r\n                revert(\"La addresd que estas ingresando no esta registrada, el paciente no existe\");\r\n            }\r\n    }\r\n\r\n    // Funcin para consultar todos los expedientes de un paciente\r\n    function getRecords(address _adressP) public view returns (MedicalRecord[] memory) {\r\n        return records[_adressP];\r\n    }\r\n\r\n    // Funcin para consultar un expediente clnico\r\n    //function getRecord(address _adressP, uint indice) public view returns (address, string, string) {\r\n    //    Expediente memory expediente = expedientes[paciente][indice];\r\n    //    return (expediente.paciente, expediente.historialMedico, expediente.tratamiento);\r\n    //}\r\n\r\n    // Evento que se desencadena al agregar un paciente\r\n    event PatientAdded(address indexed patientAddress, string  _nombreP, string  _apellidosP, string  _telefonoP, address  _adressP,\r\n        string  _correoP,string  _passP);\r\n\r\n    // Funcin nuevo paciente\r\n    function addPatient(string memory  _nombreP, string memory  _apellidosP, string memory  _telefonoP, address  _adressP,\r\n        string memory  _correoP, string memory  _passP) public {\r\n        // Comprobar si el usuario ya existe en el mapping\r\n        if (patients[_adressP].registradoP) {\r\n            // Enviar una excepcin si el usuario ya existe\r\n            revert(\"La addresd que estas ingresando ya esta registrada, ya existe este paciente\");\r\n        }\r\n        // Crea una nueva instancia del paciente\r\n        Patient memory newPatient = Patient({\r\n                                                nombreP:_nombreP, \r\n                                                apellidosP:_apellidosP,\r\n                                                telefonoP: _telefonoP,\r\n                                                adressP:_adressP,\r\n                                                correoP:_correoP,\r\n                                                passP:_passP,\r\n                                                registradoP:true});\r\n        // Asigna el paciente al mapeo\r\n        //patients[_id] = Patient(_name, _id, _age, _gender, _address);\r\n        patients[msg.sender] = newPatient;\r\n        // Desencadena el evento\r\n        emit PatientAdded(msg.sender,_nombreP, _apellidosP, _telefonoP,_adressP,_correoP,_passP);\r\n    }\r\n\r\n    function patientExists(address _patientAddress) public view returns (bool) {\r\n    return patients[_patientAddress].registradoP;\r\n    }\r\n\r\n    // Funcin Iniciar sesion paciente\r\n    function loginPatient(address  _adress, string memory   _pass) public returns (bool) {\r\n            require(keccak256(abi.encodePacked(patients[_adress].passP)) ==  keccak256(abi.encodePacked(_pass)), \"Incorrect username or password.\");\r\n            require(keccak256(abi.encodePacked(patients[_adress].adressP)) ==  keccak256(abi.encodePacked(_adress)), \"Incorrect username or password.\");\r\n            authenticatedPatients[msg.sender] = true;\r\n            return true;      \r\n    }\r\n\r\n    // Funcin para recuperar la informacin paciente\r\n    function getPatientInfo(address _patient) public view returns (string memory , string memory, string memory , address ,\r\n        string memory , string memory ) {\r\n        Patient memory patient = patients[_patient];\r\n        return (patient.nombreP, patient.apellidosP, patient.telefonoP,patient.adressP, patient.correoP, patient.passP);\r\n    }\r\n\r\n    // Evento que se desencadena al agregar un medico\r\n    event MedAdded(address indexed medAddress, string  _nombreM, string  _apellidosM, string  _telefonoM,address  _adressM,\r\n        string  _correoM, string  _passM, string  _idM, string  _espM);\r\n\r\n    // Funcin nuevo trabajador de la salud\r\n    function addMed(string memory  _nombreM, string memory  _apellidosM, string memory  _telefonoM, address  _adressM,\r\n        string memory  _correoM, string memory  _passM, string memory  _idM, string memory  _espM) public {\r\n        // Comprobar si el usuario ya existe en el mapping\r\n        if (meds[_adressM].registradoM) {\r\n            // Enviar una excepcin si el usuario ya existe\r\n            revert(\"La addresd que estas ingresando ya esta registrada, ya existe este medico\");\r\n        }\r\n        // Verifica si el string dado est en la lista de id autorizados\r\n        require(checkID(_idM), \"El id de empleado no existe\");\r\n        require(!idInUse[_idM], \"Este id ya esta en uso\");\r\n        idInUse[_idM]=true;\r\n        // Crea una nueva instancia del paciente\r\n        Med memory newMed = Med({\r\n                                                nombreM:_nombreM, \r\n                                                apellidosM:_apellidosM,\r\n                                                telefonoM: _telefonoM,\r\n                                                adressM:_adressM,\r\n                                                correoM:_correoM,\r\n                                                passM:_passM,\r\n                                                idM:_idM,\r\n                                                espM:_espM,\r\n                                                registradoM:true});\r\n        // Asigna el paciente al mapeo\r\n        //patients[_id] = Patient(_name, _id, _age, _gender, _address);\r\n        meds[msg.sender] = newMed;\r\n        // Desencadena el evento\r\n        emit MedAdded(msg.sender,_nombreM, _apellidosM, _telefonoM,_adressM,_correoM,_passM,_idM,_espM);\r\n    }\r\n\r\n    function medExists(address _patientAddress) public view returns (bool) {\r\n    return meds[_patientAddress].registradoM;\r\n    }\r\n\r\n    // Funcin Iniciar trabajador de la salud\r\n    function loginMed(address  _adress, string memory   _pass) public returns (bool) {\r\n            require(keccak256(abi.encodePacked(meds[_adress].passM)) ==  keccak256(abi.encodePacked(_pass)), \"Incorrect username or password.\");\r\n            require(keccak256(abi.encodePacked(meds[_adress].adressM)) ==  keccak256(abi.encodePacked(_adress)), \"Incorrect username or password.\");\r\n            authenticatedMed[msg.sender] = true;\r\n            return true;\r\n    }\r\n\r\n    // Funcin para recuperar la informacin trabajador de la salud\r\n    function getMedInfo(address _med) public view returns (string memory , string memory, string memory ,address ,string memory ,\r\n        string memory, string memory, string memory ) {\r\n        Med memory med = meds[_med];\r\n        return (med.nombreM, med.apellidosM, med.telefonoM,med.adressM, med.correoM, med.passM, med.idM, med.espM);\r\n    }\r\n\r\n    // Funcin para comprobar si un id est en la lista de id autorizados\r\n    function checkID(string memory _idM) public view returns (bool) {\r\n        // Verifica si el id dado est en la lista de strings autorizados\r\n        for (uint i = 0; i < authorizedIDs.length; i++) {\r\n            if (keccak256(abi.encodePacked(_idM)) == keccak256(abi.encodePacked(authorizedIDs[i]))) {\r\n                return true;\r\n            }\r\n        }\r\n        return false;\r\n    }\r\n\r\n}",
  "sourcePath": "C:\\Users\\zamor\\pru2\\contracts\\Contrato.sol",
  "compiler": {
    "name": "solc",
    "version": "0.8.17+commit.8df45f5f.Emscripten.clang"
  },
  "schemaVersion": "3.4.11",
  "updatedAt": "2023-02-11T15:31:25.821Z",
  "networkType": "ethereum",
  "devdoc": {
    "kind": "dev",
    "methods": {},
    "version": 1
  },
  "userdoc": {
    "kind": "user",
    "methods": {},
    "version": 1
  }
}