{
  "contractName": "okay",
  "abi": [
    {
      "anonymous": false,
      "inputs": [
        {
          "indexed": true,
          "internalType": "address",
          "name": "medAddress",
          "type": "address"
        },
        {
          "indexed": false,
          "internalType": "string",
          "name": "_nombreM",
          "type": "string"
        },
        {
          "indexed": false,
          "internalType": "string",
          "name": "_apellidosM",
          "type": "string"
        },
        {
          "indexed": false,
          "internalType": "string",
          "name": "_telefonoM",
          "type": "string"
        },
        {
          "indexed": false,
          "internalType": "address",
          "name": "_adressM",
          "type": "address"
        },
        {
          "indexed": false,
          "internalType": "string",
          "name": "_correoM",
          "type": "string"
        },
        {
          "indexed": false,
          "internalType": "string",
          "name": "_passM",
          "type": "string"
        },
        {
          "indexed": false,
          "internalType": "string",
          "name": "_idM",
          "type": "string"
        },
        {
          "indexed": false,
          "internalType": "string",
          "name": "_espM",
          "type": "string"
        }
      ],
      "name": "MedAdded",
      "type": "event"
    },
    {
      "anonymous": false,
      "inputs": [
        {
          "indexed": true,
          "internalType": "address",
          "name": "patientAddress",
          "type": "address"
        },
        {
          "indexed": false,
          "internalType": "string",
          "name": "_nombreP",
          "type": "string"
        },
        {
          "indexed": false,
          "internalType": "string",
          "name": "_apellidosP",
          "type": "string"
        },
        {
          "indexed": false,
          "internalType": "string",
          "name": "_telefonoP",
          "type": "string"
        },
        {
          "indexed": false,
          "internalType": "address",
          "name": "_adressP",
          "type": "address"
        },
        {
          "indexed": false,
          "internalType": "string",
          "name": "_correoP",
          "type": "string"
        },
        {
          "indexed": false,
          "internalType": "string",
          "name": "_passP",
          "type": "string"
        }
      ],
      "name": "PatientAdded",
      "type": "event"
    },
    {
      "inputs": [],
      "name": "ROLE_MED",
      "outputs": [
        {
          "internalType": "string",
          "name": "",
          "type": "string"
        }
      ],
      "stateMutability": "view",
      "type": "function",
      "constant": true
    },
    {
      "inputs": [],
      "name": "ROLE_PATIENT",
      "outputs": [
        {
          "internalType": "string",
          "name": "",
          "type": "string"
        }
      ],
      "stateMutability": "view",
      "type": "function",
      "constant": true
    },
    {
      "inputs": [
        {
          "internalType": "address",
          "name": "",
          "type": "address"
        }
      ],
      "name": "patients",
      "outputs": [
        {
          "internalType": "string",
          "name": "nombreP",
          "type": "string"
        },
        {
          "internalType": "string",
          "name": "apellidosP",
          "type": "string"
        },
        {
          "internalType": "string",
          "name": "telefonoP",
          "type": "string"
        },
        {
          "internalType": "address",
          "name": "adressP",
          "type": "address"
        },
        {
          "internalType": "string",
          "name": "correoP",
          "type": "string"
        },
        {
          "internalType": "string",
          "name": "passP",
          "type": "string"
        },
        {
          "internalType": "bool",
          "name": "registradoP",
          "type": "bool"
        },
        {
          "internalType": "string",
          "name": "rol",
          "type": "string"
        }
      ],
      "stateMutability": "view",
      "type": "function",
      "constant": true
    },
    {
      "inputs": [
        {
          "internalType": "string",
          "name": "",
          "type": "string"
        },
        {
          "internalType": "uint256",
          "name": "",
          "type": "uint256"
        }
      ],
      "name": "recordsByDiagnosis",
      "outputs": [
        {
          "internalType": "address",
          "name": "adressP",
          "type": "address"
        },
        {
          "internalType": "address",
          "name": "adressM",
          "type": "address"
        },
        {
          "internalType": "string",
          "name": "patientName",
          "type": "string"
        },
        {
          "internalType": "uint256",
          "name": "age",
          "type": "uint256"
        },
        {
          "internalType": "string",
          "name": "diagnosis",
          "type": "string"
        },
        {
          "internalType": "string",
          "name": "treatment",
          "type": "string"
        },
        {
          "internalType": "string",
          "name": "date",
          "type": "string"
        },
        {
          "internalType": "string",
          "name": "fileHash",
          "type": "string"
        },
        {
          "internalType": "string",
          "name": "state",
          "type": "string"
        },
        {
          "internalType": "string",
          "name": "note",
          "type": "string"
        }
      ],
      "stateMutability": "view",
      "type": "function",
      "constant": true
    },
    {
      "inputs": [
        {
          "internalType": "address",
          "name": "_adressP",
          "type": "address"
        },
        {
          "internalType": "address",
          "name": "_adressM",
          "type": "address"
        },
        {
          "internalType": "string",
          "name": "_patientName",
          "type": "string"
        },
        {
          "internalType": "uint256",
          "name": "_age",
          "type": "uint256"
        },
        {
          "internalType": "string",
          "name": "_diagnosis",
          "type": "string"
        },
        {
          "internalType": "string",
          "name": "_treatment",
          "type": "string"
        },
        {
          "internalType": "string",
          "name": "_date",
          "type": "string"
        },
        {
          "internalType": "string",
          "name": "_fileHash",
          "type": "string"
        },
        {
          "internalType": "string",
          "name": "_state",
          "type": "string"
        },
        {
          "internalType": "string",
          "name": "_note",
          "type": "string"
        }
      ],
      "name": "addRecord",
      "outputs": [],
      "stateMutability": "nonpayable",
      "type": "function"
    },
    {
      "inputs": [
        {
          "internalType": "address",
          "name": "_adressP",
          "type": "address"
        }
      ],
      "name": "getRecords",
      "outputs": [
        {
          "components": [
            {
              "internalType": "address",
              "name": "adressP",
              "type": "address"
            },
            {
              "internalType": "address",
              "name": "adressM",
              "type": "address"
            },
            {
              "internalType": "string",
              "name": "patientName",
              "type": "string"
            },
            {
              "internalType": "uint256",
              "name": "age",
              "type": "uint256"
            },
            {
              "internalType": "string",
              "name": "diagnosis",
              "type": "string"
            },
            {
              "internalType": "string",
              "name": "treatment",
              "type": "string"
            },
            {
              "internalType": "string",
              "name": "date",
              "type": "string"
            },
            {
              "internalType": "string",
              "name": "fileHash",
              "type": "string"
            },
            {
              "internalType": "string",
              "name": "state",
              "type": "string"
            },
            {
              "internalType": "string",
              "name": "note",
              "type": "string"
            }
          ],
          "internalType": "struct Contrato.MedicalRecord[]",
          "name": "",
          "type": "tuple[]"
        }
      ],
      "stateMutability": "view",
      "type": "function",
      "constant": true
    },
    {
      "inputs": [
        {
          "internalType": "string",
          "name": "_diagnosis",
          "type": "string"
        }
      ],
      "name": "getRecordsByDiagnosis",
      "outputs": [
        {
          "components": [
            {
              "internalType": "address",
              "name": "adressP",
              "type": "address"
            },
            {
              "internalType": "address",
              "name": "adressM",
              "type": "address"
            },
            {
              "internalType": "string",
              "name": "patientName",
              "type": "string"
            },
            {
              "internalType": "uint256",
              "name": "age",
              "type": "uint256"
            },
            {
              "internalType": "string",
              "name": "diagnosis",
              "type": "string"
            },
            {
              "internalType": "string",
              "name": "treatment",
              "type": "string"
            },
            {
              "internalType": "string",
              "name": "date",
              "type": "string"
            },
            {
              "internalType": "string",
              "name": "fileHash",
              "type": "string"
            },
            {
              "internalType": "string",
              "name": "state",
              "type": "string"
            },
            {
              "internalType": "string",
              "name": "note",
              "type": "string"
            }
          ],
          "internalType": "struct Contrato.MedicalRecord[]",
          "name": "",
          "type": "tuple[]"
        }
      ],
      "stateMutability": "view",
      "type": "function",
      "constant": true
    },
    {
      "inputs": [
        {
          "internalType": "string",
          "name": "_nombreP",
          "type": "string"
        },
        {
          "internalType": "string",
          "name": "_apellidosP",
          "type": "string"
        },
        {
          "internalType": "string",
          "name": "_telefonoP",
          "type": "string"
        },
        {
          "internalType": "address",
          "name": "_adressP",
          "type": "address"
        },
        {
          "internalType": "string",
          "name": "_correoP",
          "type": "string"
        },
        {
          "internalType": "string",
          "name": "_passP",
          "type": "string"
        }
      ],
      "name": "addPatient",
      "outputs": [],
      "stateMutability": "nonpayable",
      "type": "function"
    },
    {
      "inputs": [
        {
          "internalType": "address",
          "name": "_patientAddress",
          "type": "address"
        }
      ],
      "name": "patientExists",
      "outputs": [
        {
          "internalType": "bool",
          "name": "",
          "type": "bool"
        }
      ],
      "stateMutability": "view",
      "type": "function",
      "constant": true
    },
    {
      "inputs": [
        {
          "internalType": "address",
          "name": "_adress",
          "type": "address"
        },
        {
          "internalType": "string",
          "name": "_pass",
          "type": "string"
        }
      ],
      "name": "loginPatient",
      "outputs": [
        {
          "internalType": "bool",
          "name": "",
          "type": "bool"
        }
      ],
      "stateMutability": "nonpayable",
      "type": "function"
    },
    {
      "inputs": [
        {
          "internalType": "address",
          "name": "_patient",
          "type": "address"
        }
      ],
      "name": "getPatientInfo",
      "outputs": [
        {
          "internalType": "string",
          "name": "",
          "type": "string"
        },
        {
          "internalType": "string",
          "name": "",
          "type": "string"
        },
        {
          "internalType": "string",
          "name": "",
          "type": "string"
        },
        {
          "internalType": "address",
          "name": "",
          "type": "address"
        },
        {
          "internalType": "string",
          "name": "",
          "type": "string"
        },
        {
          "internalType": "string",
          "name": "",
          "type": "string"
        }
      ],
      "stateMutability": "view",
      "type": "function",
      "constant": true
    },
    {
      "inputs": [
        {
          "internalType": "string",
          "name": "_nombreM",
          "type": "string"
        },
        {
          "internalType": "string",
          "name": "_apellidosM",
          "type": "string"
        },
        {
          "internalType": "string",
          "name": "_telefonoM",
          "type": "string"
        },
        {
          "internalType": "address",
          "name": "_adressM",
          "type": "address"
        },
        {
          "internalType": "string",
          "name": "_correoM",
          "type": "string"
        },
        {
          "internalType": "string",
          "name": "_passM",
          "type": "string"
        },
        {
          "internalType": "string",
          "name": "_idM",
          "type": "string"
        },
        {
          "internalType": "string",
          "name": "_espM",
          "type": "string"
        }
      ],
      "name": "addMed",
      "outputs": [],
      "stateMutability": "nonpayable",
      "type": "function"
    },
    {
      "inputs": [
        {
          "internalType": "address",
          "name": "_patientAddress",
          "type": "address"
        }
      ],
      "name": "medExists",
      "outputs": [
        {
          "internalType": "bool",
          "name": "",
          "type": "bool"
        }
      ],
      "stateMutability": "view",
      "type": "function",
      "constant": true
    },
    {
      "inputs": [
        {
          "internalType": "address",
          "name": "_adress",
          "type": "address"
        },
        {
          "internalType": "string",
          "name": "_pass",
          "type": "string"
        }
      ],
      "name": "loginMed",
      "outputs": [
        {
          "internalType": "bool",
          "name": "",
          "type": "bool"
        }
      ],
      "stateMutability": "nonpayable",
      "type": "function"
    },
    {
      "inputs": [
        {
          "internalType": "address",
          "name": "_med",
          "type": "address"
        }
      ],
      "name": "getMedInfo",
      "outputs": [
        {
          "internalType": "string",
          "name": "",
          "type": "string"
        },
        {
          "internalType": "string",
          "name": "",
          "type": "string"
        },
        {
          "internalType": "string",
          "name": "",
          "type": "string"
        },
        {
          "internalType": "address",
          "name": "",
          "type": "address"
        },
        {
          "internalType": "string",
          "name": "",
          "type": "string"
        },
        {
          "internalType": "string",
          "name": "",
          "type": "string"
        },
        {
          "internalType": "string",
          "name": "",
          "type": "string"
        },
        {
          "internalType": "string",
          "name": "",
          "type": "string"
        }
      ],
      "stateMutability": "view",
      "type": "function",
      "constant": true
    },
    {
      "inputs": [
        {
          "internalType": "string",
          "name": "_idM",
          "type": "string"
        }
      ],
      "name": "checkID",
      "outputs": [
        {
          "internalType": "bool",
          "name": "",
          "type": "bool"
        }
      ],
      "stateMutability": "view",
      "type": "function",
      "constant": true
    }
  ],
  "bytecode": "0x60806040526040518060a001604052806040518060400160405280600281526020017f4d3100000000000000000000000000000000000000000000000000000000000081525081526020016040518060400160405280600281526020017f4d3200000000000000000000000000000000000000000000000000000000000081525081526020016040518060400160405280600281526020017f4d3300000000000000000000000000000000000000000000000000000000000081525081526020016040518060400160405280600281526020017f4d3400000000000000000000000000000000000000000000000000000000000081525081526020016040518060400160405280600281526020017f4d350000000000000000000000000000000000000000000000000000000000008152508152506000906005620001469291906200015b565b503480156200015457600080fd5b50620005a9565b828054828255906000526020600020908101928215620001a8579160200282015b82811115620001a7578251829081620001969190620004c2565b50916020019190600101906200017c565b5b509050620001b79190620001bb565b5090565b5b80821115620001df5760008181620001d59190620001e3565b50600101620001bc565b5090565b508054620001f190620002b1565b6000825580601f1062000205575062000226565b601f01602090049060005260206000209081019062000225919062000229565b5b50565b5b80821115620002445760008160009055506001016200022a565b5090565b600081519050919050565b7f4e487b7100000000000000000000000000000000000000000000000000000000600052604160045260246000fd5b7f4e487b7100000000000000000000000000000000000000000000000000000000600052602260045260246000fd5b60006002820490506001821680620002ca57607f821691505b602082108103620002e057620002df62000282565b5b50919050565b60008190508160005260206000209050919050565b60006020601f8301049050919050565b600082821b905092915050565b6000600883026200034a7fffffffffffffffffffffffffffffffffffffffffffffffffffffffffffffffff826200030b565b6200035686836200030b565b95508019841693508086168417925050509392505050565b6000819050919050565b6000819050919050565b6000620003a36200039d62000397846200036e565b62000378565b6200036e565b9050919050565b6000819050919050565b620003bf8362000382565b620003d7620003ce82620003aa565b84845462000318565b825550505050565b600090565b620003ee620003df565b620003fb818484620003b4565b505050565b5b81811015620004235762000417600082620003e4565b60018101905062000401565b5050565b601f82111562000472576200043c81620002e6565b6200044784620002fb565b8101602085101562000457578190505b6200046f6200046685620002fb565b83018262000400565b50505b505050565b600082821c905092915050565b6000620004976000198460080262000477565b1980831691505092915050565b6000620004b2838362000484565b9150826002028217905092915050565b620004cd8262000248565b67ffffffffffffffff811115620004e957620004e862000253565b5b620004f58254620002b1565b6200050282828562000427565b600060209050601f8311600181146200053a576000841562000525578287015190505b620005318582620004a4565b865550620005a1565b601f1984166200054a86620002e6565b60005b8281101562000574578489015182556001820191506020850194506020810190506200054d565b8683101562000594578489015162000590601f89168262000484565b8355505b6001600288020188555050505b505050505050565b61498880620005b96000396000f3fe608060405234801561001057600080fd5b50600436106101005760003560e01c80636186d41711610097578063a801e49111610066578063a801e49114610327578063c8feced214610345578063d2927bcb14610375578063fbbc6dd91461039157610100565b80636186d4171461027b57806388aab232146102ab57806398358c88146102c7578063a0076e84146102f757610100565b80634b426178116100d35780634b426178146101bf57806351710f03146101f4578063580d949f1461022457806359f9d0f21461024257610100565b80630869cfbc146101055780632900ed001461013c5780632ff650c21461017357806336613044146101a3575b600080fd5b61011f600480360381019061011a9190613347565b6103c1565b60405161013398979695949392919061342e565b60405180910390f35b61015660048036038101906101519190613347565b610766565b60405161016a9897969594939291906134d6565b60405180910390f35b61018d600480360381019061018891906136ba565b610d07565b60405161019a9190613716565b60405180910390f35b6101bd60048036038101906101b89190613731565b610f2a565b005b6101d960048036038101906101d49190613347565b6111d5565b6040516101eb9695949392919061384a565b60405180910390f35b61020e60048036038101906102099190613347565b61163f565b60405161021b9190613716565b60405180910390f35b61022c611698565b60405161023991906138ce565b60405180910390f35b61025c60048036038101906102579190613926565b6116d1565b6040516102729a99989796959493929190613991565b60405180910390f35b610295600480360381019061029091906136ba565b611b50565b6040516102a29190613716565b60405180910390f35b6102c560048036038101906102c09190613a5e565b611d73565b005b6102e160048036038101906102dc9190613c01565b61233b565b6040516102ee9190613716565b60405180910390f35b610311600480360381019061030c9190613347565b6123e8565b60405161031e9190613e78565b60405180910390f35b61032f61293b565b60405161033c91906138ce565b60405180910390f35b61035f600480360381019061035a9190613c01565b612974565b60405161036c9190613e78565b60405180910390f35b61038f600480360381019061038a9190613e9a565b612ea6565b005b6103ab60048036038101906103a69190613347565b61327c565b6040516103b89190613716565b60405180910390f35b60026020528060005260406000206000915090508060000180546103e490614043565b80601f016020809104026020016040519081016040528092919081815260200182805461041090614043565b801561045d5780601f106104325761010080835404028352916020019161045d565b820191906000526020600020905b81548152906001019060200180831161044057829003601f168201915b50505050509080600101805461047290614043565b80601f016020809104026020016040519081016040528092919081815260200182805461049e90614043565b80156104eb5780601f106104c0576101008083540402835291602001916104eb565b820191906000526020600020905b8154815290600101906020018083116104ce57829003601f168201915b50505050509080600201805461050090614043565b80601f016020809104026020016040519081016040528092919081815260200182805461052c90614043565b80156105795780601f1061054e57610100808354040283529160200191610579565b820191906000526020600020905b81548152906001019060200180831161055c57829003601f168201915b5050505050908060030160009054906101000a900473ffffffffffffffffffffffffffffffffffffffff16908060040180546105b490614043565b80601f01602080910402602001604051908101604052809291908181526020018280546105e090614043565b801561062d5780601f106106025761010080835404028352916020019161062d565b820191906000526020600020905b81548152906001019060200180831161061057829003601f168201915b50505050509080600501805461064290614043565b80601f016020809104026020016040519081016040528092919081815260200182805461066e90614043565b80156106bb5780601f10610690576101008083540402835291602001916106bb565b820191906000526020600020905b81548152906001019060200180831161069e57829003601f168201915b5050505050908060060160009054906101000a900460ff16908060070180546106e390614043565b80601f016020809104026020016040519081016040528092919081815260200182805461070f90614043565b801561075c5780601f106107315761010080835404028352916020019161075c565b820191906000526020600020905b81548152906001019060200180831161073f57829003601f168201915b5050505050905088565b606080606060006060806060806000600360008b73ffffffffffffffffffffffffffffffffffffffff1673ffffffffffffffffffffffffffffffffffffffff168152602001908152602001600020604051806101400160405290816000820180546107d090614043565b80601f01602080910402602001604051908101604052809291908181526020018280546107fc90614043565b80156108495780601f1061081e57610100808354040283529160200191610849565b820191906000526020600020905b81548152906001019060200180831161082c57829003601f168201915b5050505050815260200160018201805461086290614043565b80601f016020809104026020016040519081016040528092919081815260200182805461088e90614043565b80156108db5780601f106108b0576101008083540402835291602001916108db565b820191906000526020600020905b8154815290600101906020018083116108be57829003601f168201915b505050505081526020016002820180546108f490614043565b80601f016020809104026020016040519081016040528092919081815260200182805461092090614043565b801561096d5780601f106109425761010080835404028352916020019161096d565b820191906000526020600020905b81548152906001019060200180831161095057829003601f168201915b505050505081526020016003820160009054906101000a900473ffffffffffffffffffffffffffffffffffffffff1673ffffffffffffffffffffffffffffffffffffffff1673ffffffffffffffffffffffffffffffffffffffff1681526020016004820180546109dc90614043565b80601f0160208091040260200160405190810160405280929190818152602001828054610a0890614043565b8015610a555780601f10610a2a57610100808354040283529160200191610a55565b820191906000526020600020905b815481529060010190602001808311610a3857829003601f168201915b50505050508152602001600582018054610a6e90614043565b80601f0160208091040260200160405190810160405280929190818152602001828054610a9a90614043565b8015610ae75780601f10610abc57610100808354040283529160200191610ae7565b820191906000526020600020905b815481529060010190602001808311610aca57829003601f168201915b50505050508152602001600682018054610b0090614043565b80601f0160208091040260200160405190810160405280929190818152602001828054610b2c90614043565b8015610b795780601f10610b4e57610100808354040283529160200191610b79565b820191906000526020600020905b815481529060010190602001808311610b5c57829003601f168201915b50505050508152602001600782018054610b9290614043565b80601f0160208091040260200160405190810160405280929190818152602001828054610bbe90614043565b8015610c0b5780601f10610be057610100808354040283529160200191610c0b565b820191906000526020600020905b815481529060010190602001808311610bee57829003601f168201915b505050505081526020016008820160009054906101000a900460ff16151515158152602001600982018054610c3f90614043565b80601f0160208091040260200160405190810160405280929190818152602001828054610c6b90614043565b8015610cb85780601f10610c8d57610100808354040283529160200191610cb8565b820191906000526020600020905b815481529060010190602001808311610c9b57829003601f168201915b5050505050815250509050806000015181602001518260400151836060015184608001518560a001518660c001518760e001519850985098509850985098509850985050919395975091939597565b600081604051602001610d1a91906140b0565b60405160208183030381529060405280519060200120600260008573ffffffffffffffffffffffffffffffffffffffff1673ffffffffffffffffffffffffffffffffffffffff168152602001908152602001600020600501604051602001610d82919061415f565b6040516020818303038152906040528051906020012014610dd8576040517f08c379a0000000000000000000000000000000000000000000000000000000008152600401610dcf906141c2565b60405180910390fd5b82604051602001610de9919061422a565b60405160208183030381529060405280519060200120600260008573ffffffffffffffffffffffffffffffffffffffff1673ffffffffffffffffffffffffffffffffffffffff16815260200190815260200160002060030160009054906101000a900473ffffffffffffffffffffffffffffffffffffffff16604051602001610e72919061422a565b6040516020818303038152906040528051906020012014610ec8576040517f08c379a0000000000000000000000000000000000000000000000000000000008152600401610ebf906141c2565b60405180910390fd5b6001600460003373ffffffffffffffffffffffffffffffffffffffff1673ffffffffffffffffffffffffffffffffffffffff16815260200190815260200160002060006101000a81548160ff0219169083151502179055506001905092915050565b600260008473ffffffffffffffffffffffffffffffffffffffff1673ffffffffffffffffffffffffffffffffffffffff16815260200190815260200160002060060160009054906101000a900460ff1615610fba576040517f08c379a0000000000000000000000000000000000000000000000000000000008152600401610fb1906142dd565b60405180910390fd5b60006040518061010001604052808881526020018781526020018681526020018573ffffffffffffffffffffffffffffffffffffffff1681526020018481526020018381526020016001151581526020016040518060400160405280600781526020017f70617469656e7400000000000000000000000000000000000000000000000000815250815250905080600260003373ffffffffffffffffffffffffffffffffffffffff1673ffffffffffffffffffffffffffffffffffffffff168152602001908152602001600020600082015181600001908161109b9190614494565b5060208201518160010190816110b19190614494565b5060408201518160020190816110c79190614494565b5060608201518160030160006101000a81548173ffffffffffffffffffffffffffffffffffffffff021916908373ffffffffffffffffffffffffffffffffffffffff16021790555060808201518160040190816111249190614494565b5060a082015181600501908161113a9190614494565b5060c08201518160060160006101000a81548160ff02191690831515021790555060e08201518160070190816111709190614494565b509050503373ffffffffffffffffffffffffffffffffffffffff167f356d59a8d1aab1bf7f5712305ebf753c65a0a1d438bc71c919cb1f14905dff548888888888886040516111c49695949392919061384a565b60405180910390a250505050505050565b606080606060006060806000600260008973ffffffffffffffffffffffffffffffffffffffff1673ffffffffffffffffffffffffffffffffffffffff1681526020019081526020016000206040518061010001604052908160008201805461123c90614043565b80601f016020809104026020016040519081016040528092919081815260200182805461126890614043565b80156112b55780601f1061128a576101008083540402835291602001916112b5565b820191906000526020600020905b81548152906001019060200180831161129857829003601f168201915b505050505081526020016001820180546112ce90614043565b80601f01602080910402602001604051908101604052809291908181526020018280546112fa90614043565b80156113475780601f1061131c57610100808354040283529160200191611347565b820191906000526020600020905b81548152906001019060200180831161132a57829003601f168201915b5050505050815260200160028201805461136090614043565b80601f016020809104026020016040519081016040528092919081815260200182805461138c90614043565b80156113d95780601f106113ae576101008083540402835291602001916113d9565b820191906000526020600020905b8154815290600101906020018083116113bc57829003601f168201915b505050505081526020016003820160009054906101000a900473ffffffffffffffffffffffffffffffffffffffff1673ffffffffffffffffffffffffffffffffffffffff1673ffffffffffffffffffffffffffffffffffffffff16815260200160048201805461144890614043565b80601f016020809104026020016040519081016040528092919081815260200182805461147490614043565b80156114c15780601f10611496576101008083540402835291602001916114c1565b820191906000526020600020905b8154815290600101906020018083116114a457829003601f168201915b505050505081526020016005820180546114da90614043565b80601f016020809104026020016040519081016040528092919081815260200182805461150690614043565b80156115535780601f1061152857610100808354040283529160200191611553565b820191906000526020600020905b81548152906001019060200180831161153657829003601f168201915b505050505081526020016006820160009054906101000a900460ff1615151515815260200160078201805461158790614043565b80601f01602080910402602001604051908101604052809291908181526020018280546115b390614043565b80156116005780601f106115d557610100808354040283529160200191611600565b820191906000526020600020905b8154815290600101906020018083116115e357829003601f168201915b5050505050815250509050806000015181602001518260400151836060015184608001518560a001519650965096509650965096505091939550919395565b6000600260008373ffffffffffffffffffffffffffffffffffffffff1673ffffffffffffffffffffffffffffffffffffffff16815260200190815260200160002060060160009054906101000a900460ff169050919050565b6040518060400160405280600381526020017f6d6564000000000000000000000000000000000000000000000000000000000081525081565b600782805160208101820180518482526020830160208501208183528095505050505050818154811061170357600080fd5b90600052602060002090600a0201600091509150508060000160009054906101000a900473ffffffffffffffffffffffffffffffffffffffff16908060010160009054906101000a900473ffffffffffffffffffffffffffffffffffffffff169080600201805461177390614043565b80601f016020809104026020016040519081016040528092919081815260200182805461179f90614043565b80156117ec5780601f106117c1576101008083540402835291602001916117ec565b820191906000526020600020905b8154815290600101906020018083116117cf57829003601f168201915b50505050509080600301549080600401805461180790614043565b80601f016020809104026020016040519081016040528092919081815260200182805461183390614043565b80156118805780601f1061185557610100808354040283529160200191611880565b820191906000526020600020905b81548152906001019060200180831161186357829003601f168201915b50505050509080600501805461189590614043565b80601f01602080910402602001604051908101604052809291908181526020018280546118c190614043565b801561190e5780601f106118e35761010080835404028352916020019161190e565b820191906000526020600020905b8154815290600101906020018083116118f157829003601f168201915b50505050509080600601805461192390614043565b80601f016020809104026020016040519081016040528092919081815260200182805461194f90614043565b801561199c5780601f106119715761010080835404028352916020019161199c565b820191906000526020600020905b81548152906001019060200180831161197f57829003601f168201915b5050505050908060070180546119b190614043565b80601f01602080910402602001604051908101604052809291908181526020018280546119dd90614043565b8015611a2a5780601f106119ff57610100808354040283529160200191611a2a565b820191906000526020600020905b815481529060010190602001808311611a0d57829003601f168201915b505050505090806008018054611a3f90614043565b80601f0160208091040260200160405190810160405280929190818152602001828054611a6b90614043565b8015611ab85780601f10611a8d57610100808354040283529160200191611ab8565b820191906000526020600020905b815481529060010190602001808311611a9b57829003601f168201915b505050505090806009018054611acd90614043565b80601f0160208091040260200160405190810160405280929190818152602001828054611af990614043565b8015611b465780601f10611b1b57610100808354040283529160200191611b46565b820191906000526020600020905b815481529060010190602001808311611b2957829003601f168201915b505050505090508a565b600081604051602001611b6391906140b0565b60405160208183030381529060405280519060200120600360008573ffffffffffffffffffffffffffffffffffffffff1673ffffffffffffffffffffffffffffffffffffffff168152602001908152602001600020600501604051602001611bcb919061415f565b6040516020818303038152906040528051906020012014611c21576040517f08c379a0000000000000000000000000000000000000000000000000000000008152600401611c18906141c2565b60405180910390fd5b82604051602001611c32919061422a565b60405160208183030381529060405280519060200120600360008573ffffffffffffffffffffffffffffffffffffffff1673ffffffffffffffffffffffffffffffffffffffff16815260200190815260200160002060030160009054906101000a900473ffffffffffffffffffffffffffffffffffffffff16604051602001611cbb919061422a565b6040516020818303038152906040528051906020012014611d11576040517f08c379a0000000000000000000000000000000000000000000000000000000008152600401611d08906141c2565b60405180910390fd5b6001600560003373ffffffffffffffffffffffffffffffffffffffff1673ffffffffffffffffffffffffffffffffffffffff16815260200190815260200160002060006101000a81548160ff0219169083151502179055506001905092915050565b600360003373ffffffffffffffffffffffffffffffffffffffff1673ffffffffffffffffffffffffffffffffffffffff16815260200190815260200160002060080160009054906101000a900460ff16611e02576040517f08c379a0000000000000000000000000000000000000000000000000000000008152600401611df9906145d8565b60405180910390fd5b6040518060400160405280600381526020017f6d65640000000000000000000000000000000000000000000000000000000000815250604051602001611e4891906140b0565b60405160208183030381529060405280519060200120600360003373ffffffffffffffffffffffffffffffffffffffff1673ffffffffffffffffffffffffffffffffffffffff168152602001908152602001600020600901604051602001611eb0919061415f565b6040516020818303038152906040528051906020012014611f06576040517f08c379a0000000000000000000000000000000000000000000000000000000008152600401611efd90614644565b60405180910390fd5b600260008b73ffffffffffffffffffffffffffffffffffffffff1673ffffffffffffffffffffffffffffffffffffffff16815260200190815260200160002060060160009054906101000a900460ff16156122f45760006040518061014001604052808c73ffffffffffffffffffffffffffffffffffffffff1681526020018b73ffffffffffffffffffffffffffffffffffffffff1681526020018a8152602001898152602001888152602001878152602001868152602001858152602001848152602001838152509050600160008c73ffffffffffffffffffffffffffffffffffffffff1673ffffffffffffffffffffffffffffffffffffffff1681526020019081526020016000208190806001815401808255809150506001900390600052602060002090600a020160009091909190915060008201518160000160006101000a81548173ffffffffffffffffffffffffffffffffffffffff021916908373ffffffffffffffffffffffffffffffffffffffff16021790555060208201518160010160006101000a81548173ffffffffffffffffffffffffffffffffffffffff021916908373ffffffffffffffffffffffffffffffffffffffff16021790555060408201518160020190816120dd9190614494565b506060820151816003015560808201518160040190816120fd9190614494565b5060a08201518160050190816121139190614494565b5060c08201518160060190816121299190614494565b5060e082015181600701908161213f9190614494565b506101008201518160080190816121569190614494565b5061012082015181600901908161216d9190614494565b50505060078760405161218091906140b0565b90815260200160405180910390208190806001815401808255809150506001900390600052602060002090600a020160009091909190915060008201518160000160006101000a81548173ffffffffffffffffffffffffffffffffffffffff021916908373ffffffffffffffffffffffffffffffffffffffff16021790555060208201518160010160006101000a81548173ffffffffffffffffffffffffffffffffffffffff021916908373ffffffffffffffffffffffffffffffffffffffff160217905550604082015181600201908161225b9190614494565b5060608201518160030155608082015181600401908161227b9190614494565b5060a08201518160050190816122919190614494565b5060c08201518160060190816122a79190614494565b5060e08201518160070190816122bd9190614494565b506101008201518160080190816122d49190614494565b506101208201518160090190816122eb9190614494565b5050505061232f565b6040517f08c379a0000000000000000000000000000000000000000000000000000000008152600401612326906146fc565b60405180910390fd5b50505050505050505050565b600080600090505b6000805490508110156123dd57600081815481106123645761236361471c565b5b9060005260206000200160405160200161237e919061415f565b60405160208183030381529060405280519060200120836040516020016123a591906140b0565b60405160208183030381529060405280519060200120036123ca5760019150506123e3565b80806123d59061477a565b915050612343565b50600090505b919050565b6060600160008373ffffffffffffffffffffffffffffffffffffffff1673ffffffffffffffffffffffffffffffffffffffff168152602001908152602001600020805480602002602001604051908101604052809291908181526020016000905b8282101561293057838290600052602060002090600a0201604051806101400160405290816000820160009054906101000a900473ffffffffffffffffffffffffffffffffffffffff1673ffffffffffffffffffffffffffffffffffffffff1673ffffffffffffffffffffffffffffffffffffffff1681526020016001820160009054906101000a900473ffffffffffffffffffffffffffffffffffffffff1673ffffffffffffffffffffffffffffffffffffffff1673ffffffffffffffffffffffffffffffffffffffff16815260200160028201805461252990614043565b80601f016020809104026020016040519081016040528092919081815260200182805461255590614043565b80156125a25780601f10612577576101008083540402835291602001916125a2565b820191906000526020600020905b81548152906001019060200180831161258557829003601f168201915b50505050508152602001600382015481526020016004820180546125c590614043565b80601f01602080910402602001604051908101604052809291908181526020018280546125f190614043565b801561263e5780601f106126135761010080835404028352916020019161263e565b820191906000526020600020905b81548152906001019060200180831161262157829003601f168201915b5050505050815260200160058201805461265790614043565b80601f016020809104026020016040519081016040528092919081815260200182805461268390614043565b80156126d05780601f106126a5576101008083540402835291602001916126d0565b820191906000526020600020905b8154815290600101906020018083116126b357829003601f168201915b505050505081526020016006820180546126e990614043565b80601f016020809104026020016040519081016040528092919081815260200182805461271590614043565b80156127625780601f1061273757610100808354040283529160200191612762565b820191906000526020600020905b81548152906001019060200180831161274557829003601f168201915b5050505050815260200160078201805461277b90614043565b80601f01602080910402602001604051908101604052809291908181526020018280546127a790614043565b80156127f45780601f106127c9576101008083540402835291602001916127f4565b820191906000526020600020905b8154815290600101906020018083116127d757829003601f168201915b5050505050815260200160088201805461280d90614043565b80601f016020809104026020016040519081016040528092919081815260200182805461283990614043565b80156128865780601f1061285b57610100808354040283529160200191612886565b820191906000526020600020905b81548152906001019060200180831161286957829003601f168201915b5050505050815260200160098201805461289f90614043565b80601f01602080910402602001604051908101604052809291908181526020018280546128cb90614043565b80156129185780601f106128ed57610100808354040283529160200191612918565b820191906000526020600020905b8154815290600101906020018083116128fb57829003601f168201915b50505050508152505081526020019060010190612449565b505050509050919050565b6040518060400160405280600781526020017f70617469656e740000000000000000000000000000000000000000000000000081525081565b606060078260405161298691906140b0565b9081526020016040518091039020805480602002602001604051908101604052809291908181526020016000905b82821015612e9b57838290600052602060002090600a0201604051806101400160405290816000820160009054906101000a900473ffffffffffffffffffffffffffffffffffffffff1673ffffffffffffffffffffffffffffffffffffffff1673ffffffffffffffffffffffffffffffffffffffff1681526020016001820160009054906101000a900473ffffffffffffffffffffffffffffffffffffffff1673ffffffffffffffffffffffffffffffffffffffff1673ffffffffffffffffffffffffffffffffffffffff168152602001600282018054612a9490614043565b80601f0160208091040260200160405190810160405280929190818152602001828054612ac090614043565b8015612b0d5780601f10612ae257610100808354040283529160200191612b0d565b820191906000526020600020905b815481529060010190602001808311612af057829003601f168201915b5050505050815260200160038201548152602001600482018054612b3090614043565b80601f0160208091040260200160405190810160405280929190818152602001828054612b5c90614043565b8015612ba95780601f10612b7e57610100808354040283529160200191612ba9565b820191906000526020600020905b815481529060010190602001808311612b8c57829003601f168201915b50505050508152602001600582018054612bc290614043565b80601f0160208091040260200160405190810160405280929190818152602001828054612bee90614043565b8015612c3b5780601f10612c1057610100808354040283529160200191612c3b565b820191906000526020600020905b815481529060010190602001808311612c1e57829003601f168201915b50505050508152602001600682018054612c5490614043565b80601f0160208091040260200160405190810160405280929190818152602001828054612c8090614043565b8015612ccd5780601f10612ca257610100808354040283529160200191612ccd565b820191906000526020600020905b815481529060010190602001808311612cb057829003601f168201915b50505050508152602001600782018054612ce690614043565b80601f0160208091040260200160405190810160405280929190818152602001828054612d1290614043565b8015612d5f5780601f10612d3457610100808354040283529160200191612d5f565b820191906000526020600020905b815481529060010190602001808311612d4257829003601f168201915b50505050508152602001600882018054612d7890614043565b80601f0160208091040260200160405190810160405280929190818152602001828054612da490614043565b8015612df15780601f10612dc657610100808354040283529160200191612df1565b820191906000526020600020905b815481529060010190602001808311612dd457829003601f168201915b50505050508152602001600982018054612e0a90614043565b80601f0160208091040260200160405190810160405280929190818152602001828054612e3690614043565b8015612e835780601f10612e5857610100808354040283529160200191612e83565b820191906000526020600020905b815481529060010190602001808311612e6657829003601f168201915b505050505081525050815260200190600101906129b4565b505050509050919050565b600360008673ffffffffffffffffffffffffffffffffffffffff1673ffffffffffffffffffffffffffffffffffffffff16815260200190815260200160002060080160009054906101000a900460ff1615612f36576040517f08c379a0000000000000000000000000000000000000000000000000000000008152600401612f2d9061485a565b60405180910390fd5b612f3f8261233b565b612f7e576040517f08c379a0000000000000000000000000000000000000000000000000000000008152600401612f75906148c6565b60405180910390fd5b600682604051612f8e91906140b0565b908152602001604051809103902060009054906101000a900460ff1615612fea576040517f08c379a0000000000000000000000000000000000000000000000000000000008152600401612fe190614932565b60405180910390fd5b6001600683604051612ffc91906140b0565b908152602001604051809103902060006101000a81548160ff02191690831515021790555060006040518061014001604052808a81526020018981526020018881526020018773ffffffffffffffffffffffffffffffffffffffff1681526020018681526020018581526020018481526020018381526020016001151581526020016040518060400160405280600381526020017f6d65640000000000000000000000000000000000000000000000000000000000815250815250905080600360003373ffffffffffffffffffffffffffffffffffffffff1673ffffffffffffffffffffffffffffffffffffffff168152602001908152602001600020600082015181600001908161310e9190614494565b5060208201518160010190816131249190614494565b50604082015181600201908161313a9190614494565b5060608201518160030160006101000a81548173ffffffffffffffffffffffffffffffffffffffff021916908373ffffffffffffffffffffffffffffffffffffffff16021790555060808201518160040190816131979190614494565b5060a08201518160050190816131ad9190614494565b5060c08201518160060190816131c39190614494565b5060e08201518160070190816131d99190614494565b506101008201518160080160006101000a81548160ff0219169083151502179055506101208201518160090190816132119190614494565b509050503373ffffffffffffffffffffffffffffffffffffffff167f618af81ee8ab9d4da14c13a91ade4243f53240db6ea00b5161d3d8d47ffb1efb8a8a8a8a8a8a8a8a6040516132699897969594939291906134d6565b60405180910390a2505050505050505050565b6000600360008373ffffffffffffffffffffffffffffffffffffffff1673ffffffffffffffffffffffffffffffffffffffff16815260200190815260200160002060080160009054906101000a900460ff169050919050565b6000604051905090565b600080fd5b600080fd5b600073ffffffffffffffffffffffffffffffffffffffff82169050919050565b6000613314826132e9565b9050919050565b61332481613309565b811461332f57600080fd5b50565b6000813590506133418161331b565b92915050565b60006020828403121561335d5761335c6132df565b5b600061336b84828501613332565b91505092915050565b600081519050919050565b600082825260208201905092915050565b60005b838110156133ae578082015181840152602081019050613393565b60008484015250505050565b6000601f19601f8301169050919050565b60006133d682613374565b6133e0818561337f565b93506133f0818560208601613390565b6133f9816133ba565b840191505092915050565b61340d81613309565b82525050565b60008115159050919050565b61342881613413565b82525050565b6000610100820190508181036000830152613449818b6133cb565b9050818103602083015261345d818a6133cb565b9050818103604083015261347181896133cb565b90506134806060830188613404565b818103608083015261349281876133cb565b905081810360a08301526134a681866133cb565b90506134b560c083018561341f565b81810360e08301526134c781846133cb565b90509998505050505050505050565b60006101008201905081810360008301526134f1818b6133cb565b90508181036020830152613505818a6133cb565b9050818103604083015261351981896133cb565b90506135286060830188613404565b818103608083015261353a81876133cb565b905081810360a083015261354e81866133cb565b905081810360c083015261356281856133cb565b905081810360e083015261357681846133cb565b90509998505050505050505050565b600080fd5b600080fd5b7f4e487b7100000000000000000000000000000000000000000000000000000000600052604160045260246000fd5b6135c7826133ba565b810181811067ffffffffffffffff821117156135e6576135e561358f565b5b80604052505050565b60006135f96132d5565b905061360582826135be565b919050565b600067ffffffffffffffff8211156136255761362461358f565b5b61362e826133ba565b9050602081019050919050565b82818337600083830152505050565b600061365d6136588461360a565b6135ef565b9050828152602081018484840111156136795761367861358a565b5b61368484828561363b565b509392505050565b600082601f8301126136a1576136a0613585565b5b81356136b184826020860161364a565b91505092915050565b600080604083850312156136d1576136d06132df565b5b60006136df85828601613332565b925050602083013567ffffffffffffffff811115613700576136ff6132e4565b5b61370c8582860161368c565b9150509250929050565b600060208201905061372b600083018461341f565b92915050565b60008060008060008060c0878903121561374e5761374d6132df565b5b600087013567ffffffffffffffff81111561376c5761376b6132e4565b5b61377889828a0161368c565b965050602087013567ffffffffffffffff811115613799576137986132e4565b5b6137a589828a0161368c565b955050604087013567ffffffffffffffff8111156137c6576137c56132e4565b5b6137d289828a0161368c565b94505060606137e389828a01613332565b935050608087013567ffffffffffffffff811115613804576138036132e4565b5b61381089828a0161368c565b92505060a087013567ffffffffffffffff811115613831576138306132e4565b5b61383d89828a0161368c565b9150509295509295509295565b600060c082019050818103600083015261386481896133cb565b9050818103602083015261387881886133cb565b9050818103604083015261388c81876133cb565b905061389b6060830186613404565b81810360808301526138ad81856133cb565b905081810360a08301526138c181846133cb565b9050979650505050505050565b600060208201905081810360008301526138e881846133cb565b905092915050565b6000819050919050565b613903816138f0565b811461390e57600080fd5b50565b600081359050613920816138fa565b92915050565b6000806040838503121561393d5761393c6132df565b5b600083013567ffffffffffffffff81111561395b5761395a6132e4565b5b6139678582860161368c565b925050602061397885828601613911565b9150509250929050565b61398b816138f0565b82525050565b6000610140820190506139a7600083018d613404565b6139b4602083018c613404565b81810360408301526139c6818b6133cb565b90506139d5606083018a613982565b81810360808301526139e781896133cb565b905081810360a08301526139fb81886133cb565b905081810360c0830152613a0f81876133cb565b905081810360e0830152613a2381866133cb565b9050818103610100830152613a3881856133cb565b9050818103610120830152613a4d81846133cb565b90509b9a5050505050505050505050565b6000806000806000806000806000806101408b8d031215613a8257613a816132df565b5b6000613a908d828e01613332565b9a50506020613aa18d828e01613332565b99505060408b013567ffffffffffffffff811115613ac257613ac16132e4565b5b613ace8d828e0161368c565b9850506060613adf8d828e01613911565b97505060808b013567ffffffffffffffff811115613b0057613aff6132e4565b5b613b0c8d828e0161368c565b96505060a08b013567ffffffffffffffff811115613b2d57613b2c6132e4565b5b613b398d828e0161368c565b95505060c08b013567ffffffffffffffff811115613b5a57613b596132e4565b5b613b668d828e0161368c565b94505060e08b013567ffffffffffffffff811115613b8757613b866132e4565b5b613b938d828e0161368c565b9350506101008b013567ffffffffffffffff811115613bb557613bb46132e4565b5b613bc18d828e0161368c565b9250506101208b013567ffffffffffffffff811115613be357613be26132e4565b5b613bef8d828e0161368c565b9150509295989b9194979a5092959850565b600060208284031215613c1757613c166132df565b5b600082013567ffffffffffffffff811115613c3557613c346132e4565b5b613c418482850161368c565b91505092915050565b600081519050919050565b600082825260208201905092915050565b6000819050602082019050919050565b613c7f81613309565b82525050565b600082825260208201905092915050565b6000613ca182613374565b613cab8185613c85565b9350613cbb818560208601613390565b613cc4816133ba565b840191505092915050565b613cd8816138f0565b82525050565b600061014083016000830151613cf76000860182613c76565b506020830151613d0a6020860182613c76565b5060408301518482036040860152613d228282613c96565b9150506060830151613d376060860182613ccf565b5060808301518482036080860152613d4f8282613c96565b91505060a083015184820360a0860152613d698282613c96565b91505060c083015184820360c0860152613d838282613c96565b91505060e083015184820360e0860152613d9d8282613c96565b915050610100830151848203610100860152613db98282613c96565b915050610120830151848203610120860152613dd58282613c96565b9150508091505092915050565b6000613dee8383613cde565b905092915050565b6000602082019050919050565b6000613e0e82613c4a565b613e188185613c55565b935083602082028501613e2a85613c66565b8060005b85811015613e665784840389528151613e478582613de2565b9450613e5283613df6565b925060208a01995050600181019050613e2e565b50829750879550505050505092915050565b60006020820190508181036000830152613e928184613e03565b905092915050565b600080600080600080600080610100898b031215613ebb57613eba6132df565b5b600089013567ffffffffffffffff811115613ed957613ed86132e4565b5b613ee58b828c0161368c565b985050602089013567ffffffffffffffff811115613f0657613f056132e4565b5b613f128b828c0161368c565b975050604089013567ffffffffffffffff811115613f3357613f326132e4565b5b613f3f8b828c0161368c565b9650506060613f508b828c01613332565b955050608089013567ffffffffffffffff811115613f7157613f706132e4565b5b613f7d8b828c0161368c565b94505060a089013567ffffffffffffffff811115613f9e57613f9d6132e4565b5b613faa8b828c0161368c565b93505060c089013567ffffffffffffffff811115613fcb57613fca6132e4565b5b613fd78b828c0161368c565b92505060e089013567ffffffffffffffff811115613ff857613ff76132e4565b5b6140048b828c0161368c565b9150509295985092959890939650565b7f4e487b7100000000000000000000000000000000000000000000000000000000600052602260045260246000fd5b6000600282049050600182168061405b57607f821691505b60208210810361406e5761406d614014565b5b50919050565b600081905092915050565b600061408a82613374565b6140948185614074565b93506140a4818560208601613390565b80840191505092915050565b60006140bc828461407f565b915081905092915050565b60008190508160005260206000209050919050565b600081546140e981614043565b6140f38186614074565b9450600182166000811461410e576001811461412357614156565b60ff1983168652811515820286019350614156565b61412c856140c7565b60005b8381101561414e5781548189015260018201915060208101905061412f565b838801955050505b50505092915050565b600061416b82846140dc565b915081905092915050565b7f496e636f727265637420757365726e616d65206f722070617373776f72642e00600082015250565b60006141ac601f8361337f565b91506141b782614176565b602082019050919050565b600060208201905081810360008301526141db8161419f565b9050919050565b60008160601b9050919050565b60006141fa826141e2565b9050919050565b600061420c826141ef565b9050919050565b61422461421f82613309565b614201565b82525050565b60006142368284614213565b60148201915081905092915050565b7f4c6120616464726573642071756520657374617320696e67726573616e646f2060008201527f7961206573746120726567697374726164612c2079612065786973746520657360208201527f74652070616369656e7465000000000000000000000000000000000000000000604082015250565b60006142c7604b8361337f565b91506142d282614245565b606082019050919050565b600060208201905081810360008301526142f6816142ba565b9050919050565b60006020601f8301049050919050565b600082821b905092915050565b60006008830261434a7fffffffffffffffffffffffffffffffffffffffffffffffffffffffffffffffff8261430d565b614354868361430d565b95508019841693508086168417925050509392505050565b6000819050919050565b600061439161438c614387846138f0565b61436c565b6138f0565b9050919050565b6000819050919050565b6143ab83614376565b6143bf6143b782614398565b84845461431a565b825550505050565b600090565b6143d46143c7565b6143df8184846143a2565b505050565b5b81811015614403576143f86000826143cc565b6001810190506143e5565b5050565b601f82111561444857614419816140c7565b614422846142fd565b81016020851015614431578190505b61444561443d856142fd565b8301826143e4565b50505b505050565b600082821c905092915050565b600061446b6000198460080261444d565b1980831691505092915050565b6000614484838361445a565b9150826002028217905092915050565b61449d82613374565b67ffffffffffffffff8111156144b6576144b561358f565b5b6144c08254614043565b6144cb828285614407565b600060209050601f8311600181146144fe57600084156144ec578287015190505b6144f68582614478565b86555061455e565b601f19841661450c866140c7565b60005b828110156145345784890151825560018201915060208501945060208101905061450f565b86831015614551578489015161454d601f89168261445a565b8355505b6001600288020188555050505b505050505050565b7f536f6c6f206c6f73206d656469636f732070756564656e20616363656465722060008201527f6120657374612066756e63696f6e2e0000000000000000000000000000000000602082015250565b60006145c2602f8361337f565b91506145cd82614566565b604082019050919050565b600060208201905081810360008301526145f1816145b5565b9050919050565b7f4e6f207469656e657320656c20726f6c206465206d656469636f2e0000000000600082015250565b600061462e601b8361337f565b9150614639826145f8565b602082019050919050565b6000602082019050818103600083015261465d81614621565b9050919050565b7f4c6120616464726573642071756520657374617320696e67726573616e646f2060008201527f6e6f206573746120726567697374726164612c20656c2070616369656e74652060208201527f6e6f206578697374650000000000000000000000000000000000000000000000604082015250565b60006146e660498361337f565b91506146f182614664565b606082019050919050565b60006020820190508181036000830152614715816146d9565b9050919050565b7f4e487b7100000000000000000000000000000000000000000000000000000000600052603260045260246000fd5b7f4e487b7100000000000000000000000000000000000000000000000000000000600052601160045260246000fd5b6000614785826138f0565b91507fffffffffffffffffffffffffffffffffffffffffffffffffffffffffffffffff82036147b7576147b661474b565b5b600182019050919050565b7f4c6120616464726573642071756520657374617320696e67726573616e646f2060008201527f7961206573746120726567697374726164612c2079612065786973746520657360208201527f7465206d656469636f0000000000000000000000000000000000000000000000604082015250565b600061484460498361337f565b915061484f826147c2565b606082019050919050565b6000602082019050818103600083015261487381614837565b9050919050565b7f456c20696420646520656d706c6561646f206e6f206578697374650000000000600082015250565b60006148b0601b8361337f565b91506148bb8261487a565b602082019050919050565b600060208201905081810360008301526148df816148a3565b9050919050565b7f45737465206964207961206573746120656e2075736f00000000000000000000600082015250565b600061491c60168361337f565b9150614927826148e6565b602082019050919050565b6000602082019050818103600083015261494b8161490f565b905091905056fea264697066735822122098e3aa8e96944e7ebc32acdb5ac795bce11f42eddad7ebe92c6908cd46da05b764736f6c63430008110033",
  "immutableReferences": {},
  "source": "//SPDX-License-Identifier: MIT\npragma solidity >=0.4.22 <0.9.0;\n\n\ncontract Contrato {\n//------------------------------------declaracion de estructuras para variables\n    struct MedicalRecord {\n        address adressP;\n        address adressM;\n        string patientName;\n        uint age;\n        string diagnosis;\n        string treatment;\n        string date;\n        string fileHash;\n        string state;\n        string note;\n    }\n    struct Patient {\n        string   nombreP;\n        string   apellidosP;\n        string   telefonoP;\n        address   adressP;\n        string   correoP;\n        string   passP;\n        bool registradoP;\n        string rol;\n    }\n    struct Med {\n        string   nombreM;\n        string   apellidosM;\n        string   telefonoM;\n        address   adressM;\n        string   correoM;\n        string   passM;\n        string    idM;\n        string   espM;\n        bool registradoM;\n        string rol;\n    }\n    // Definimos los roles que se utilizarn\n    string constant public ROLE_PATIENT = \"patient\";\n    string constant public ROLE_MED = \"med\";\n\n    // Definimos los id permitido\n    string[] authorizedIDs = [\"M1\",\"M2\",\"M3\",\"M4\",\"M5\"];\n\n//-------------------------------------------------------- Mapeo \n    mapping (address => MedicalRecord[]) records;\n    mapping (address => Patient) public patients;\n    mapping (address => Med) meds;\n    mapping(address => bool) authenticatedPatients;\n    mapping(address => bool) authenticatedMed;\n    mapping(string => bool) idInUse;\n    mapping(string => MedicalRecord[]) public recordsByDiagnosis;\n\n//-----------------------------------------------------Funciones\n    \n    modifier onlyPatient {\n        require(patients[msg.sender].registradoP, \"Solo los pacientes pueden acceder a esta funcion.\");\n        require(keccak256(abi.encodePacked(patients[msg.sender].rol)) == keccak256(abi.encodePacked(ROLE_PATIENT)), \"No tienes el rol de paciente.\");\n        _;\n    }\n\n    // Modificador para restringir el acceso a mdicos\n    modifier onlyMed {\n        require(meds[msg.sender].registradoM, \"Solo los medicos pueden acceder a esta funcion.\");\n        require(keccak256(abi.encodePacked(meds[msg.sender].rol)) == keccak256(abi.encodePacked(ROLE_MED)), \"No tienes el rol de medico.\");\n        _;\n    }\n\n\n    function addRecord(address _adressP, address _adressM, string memory _patientName, uint _age, string memory _diagnosis, \n        string memory _treatment,string memory _date,string memory _fileHash,string memory _state,\n        string memory _note) public onlyMed {\n        if (patients[_adressP].registradoP) {\n            MedicalRecord memory newRecord = MedicalRecord({\n                                                        adressP: _adressP,\n                                                        adressM: _adressM,\n                                                        patientName: _patientName,\n                                                        age: _age,\n                                                        diagnosis: _diagnosis,\n                                                        treatment: _treatment,\n                                                        date: _date,\n                                                        fileHash: _fileHash,\n                                                        state: _state,\n                                                        note: _note\n                                                        });\n            records[_adressP].push(newRecord);\n            recordsByDiagnosis[_diagnosis].push(newRecord);\n            } else {\n                revert(\"La addresd que estas ingresando no esta registrada, el paciente no existe\");\n            }\n    }\n\n    // Funcin para consultar todos los expedientes de un paciente\n    function getRecords(address _adressP) public view returns (MedicalRecord[] memory) {\n        return records[_adressP];\n        } \n\n    function getRecordsByDiagnosis(string memory _diagnosis) public view returns (MedicalRecord[] memory) {\n         return recordsByDiagnosis[_diagnosis];\n    }\n\n    // Evento que se desencadena al agregar un paciente\n    event PatientAdded(address indexed patientAddress, string  _nombreP, string  _apellidosP, string  _telefonoP, address  _adressP,\n        string  _correoP,string  _passP);\n\n    // Funcin nuevo paciente\n    function addPatient(string memory  _nombreP, string memory  _apellidosP, string memory  _telefonoP, address  _adressP,\n        string memory  _correoP, string memory  _passP) public {\n        // Comprobar si el usuario ya existe en el mapping\n        if (patients[_adressP].registradoP) {\n            // Enviar una excepcin si el usuario ya existe\n            revert(\"La addresd que estas ingresando ya esta registrada, ya existe este paciente\");\n        }\n        // Crea una nueva instancia del paciente\n        Patient memory newPatient = Patient({\n                                                nombreP:_nombreP, \n                                                apellidosP:_apellidosP,\n                                                telefonoP: _telefonoP,\n                                                adressP:_adressP,\n                                                correoP:_correoP,\n                                                //passP: keccak256(abi.encodePacked(_passP))\n                                                passP:_passP,\n                                                registradoP:true,\n                                                rol:ROLE_PATIENT});\n        // Asigna el paciente al mapeo\n        patients[msg.sender] = newPatient;\n        // Desencadena el evento\n        emit PatientAdded(msg.sender,_nombreP, _apellidosP, _telefonoP,_adressP,_correoP,_passP);\n    }\n\n    function patientExists(address _patientAddress) public view returns (bool) {\n    return patients[_patientAddress].registradoP;\n    }\n\n    // Funcin Iniciar sesion paciente\n    function loginPatient(address  _adress, string memory   _pass) public returns (bool)  {\n            require(keccak256(abi.encodePacked(patients[_adress].passP)) ==  keccak256(abi.encodePacked(_pass)), \"Incorrect username or password.\");\n            require(keccak256(abi.encodePacked(patients[_adress].adressP)) ==  keccak256(abi.encodePacked(_adress)), \"Incorrect username or password.\");\n            authenticatedPatients[msg.sender] = true;\n            return true;      \n    }\n\n    // Funcin para recuperar la informacin paciente\n    function getPatientInfo(address _patient) public view   returns (string memory , string memory, string memory , address ,\n        string memory , string memory ){\n        Patient memory patient = patients[_patient];\n        return (patient.nombreP, patient.apellidosP, patient.telefonoP,patient.adressP, patient.correoP, patient.passP);\n    }\n\n    // Evento que se desencadena al agregar un medico\n    event MedAdded(address indexed medAddress, string  _nombreM, string  _apellidosM, string  _telefonoM,address  _adressM,\n        string  _correoM, string  _passM, string  _idM, string  _espM);\n\n    // Funcin nuevo trabajador de la salud\n    function addMed(string memory  _nombreM, string memory  _apellidosM, string memory  _telefonoM, address  _adressM,\n        string memory  _correoM, string memory  _passM, string memory  _idM, string memory  _espM) public {\n        // Comprobar si el usuario ya existe en el mapping\n        if (meds[_adressM].registradoM) {\n            // Enviar una excepcin si el usuario ya existe\n            revert(\"La addresd que estas ingresando ya esta registrada, ya existe este medico\");\n        }\n        // Verifica si el string dado est en la lista de id autorizados\n        require(checkID(_idM), \"El id de empleado no existe\");\n        require(!idInUse[_idM], \"Este id ya esta en uso\");\n        idInUse[_idM]=true;\n        // Crea una nueva instancia del paciente\n        Med memory newMed = Med({\n                                                nombreM:_nombreM, \n                                                apellidosM:_apellidosM,\n                                                telefonoM: _telefonoM,\n                                                adressM:_adressM,\n                                                correoM:_correoM,\n                                                passM:_passM,\n                                                idM:_idM,\n                                                espM:_espM,\n                                                registradoM:true,\n                                                rol:ROLE_MED});\n        // Asigna el paciente al mapeo\n        //patients[_id] = Patient(_name, _id, _age, _gender, _address);\n        meds[msg.sender] = newMed;\n        // Desencadena el evento\n        emit MedAdded(msg.sender,_nombreM, _apellidosM, _telefonoM,_adressM,_correoM,_passM,_idM,_espM);\n    }\n\n    function medExists(address _patientAddress) public view returns (bool) {\n    return meds[_patientAddress].registradoM;\n    }\n\n    // Funcin Iniciar trabajador de la salud\n    function loginMed(address  _adress, string memory   _pass) public returns (bool)  {\n            require(keccak256(abi.encodePacked(meds[_adress].passM)) ==  keccak256(abi.encodePacked(_pass)), \"Incorrect username or password.\");\n            require(keccak256(abi.encodePacked(meds[_adress].adressM)) ==  keccak256(abi.encodePacked(_adress)), \"Incorrect username or password.\");\n            authenticatedMed[msg.sender] = true;\n            return true;\n    }\n\n    // Funcin para recuperar la informacin trabajador de la salud\n    function getMedInfo(address _med) public view returns  (string memory , string memory, string memory ,address ,string memory ,\n        string memory, string memory, string memory )  {\n        Med memory med = meds[_med];\n        return (med.nombreM, med.apellidosM, med.telefonoM,med.adressM, med.correoM, med.passM, med.idM, med.espM);\n    }\n\n    // Funcin para comprobar si un id est en la lista de id autorizados\n    function checkID(string memory _idM) public view returns (bool) {\n        // Verifica si el id dado est en la lista de strings autorizados\n        for (uint i = 0; i < authorizedIDs.length; i++) {\n            if (keccak256(abi.encodePacked(_idM)) == keccak256(abi.encodePacked(authorizedIDs[i]))) {\n                return true;\n            }\n        }\n        return false;\n    }\n\n}",
  "sourcePath": "/home/eera/Documents/proyecto/dapp-hospital/contracts/Contrato.sol",
  "compiler": {
    "name": "solc",
    "version": "0.8.17+commit.8df45f5f.Emscripten.clang"
  },
  "schemaVersion": "3.4.11",
  "updatedAt": "2023-03-20T18:01:59.174Z",
  "networkType": "ethereum",
  "devdoc": {
    "kind": "dev",
    "methods": {},
    "version": 1
  },
  "userdoc": {
    "kind": "user",
    "methods": {},
    "version": 1
  }
}