{
  "contractName": "Contrato",
  "abi": [
    {
      "anonymous": false,
      "inputs": [
        {
          "indexed": true,
          "internalType": "address",
          "name": "medAddress",
          "type": "address"
        },
        {
          "indexed": false,
          "internalType": "string",
          "name": "_nombreM",
          "type": "string"
        },
        {
          "indexed": false,
          "internalType": "string",
          "name": "_apellidosM",
          "type": "string"
        },
        {
          "indexed": false,
          "internalType": "string",
          "name": "_telefonoM",
          "type": "string"
        },
        {
          "indexed": false,
          "internalType": "address",
          "name": "_adressM",
          "type": "address"
        },
        {
          "indexed": false,
          "internalType": "string",
          "name": "_correoM",
          "type": "string"
        },
        {
          "indexed": false,
          "internalType": "string",
          "name": "_passM",
          "type": "string"
        },
        {
          "indexed": false,
          "internalType": "string",
          "name": "_idM",
          "type": "string"
        },
        {
          "indexed": false,
          "internalType": "string",
          "name": "_espM",
          "type": "string"
        }
      ],
      "name": "MedAdded",
      "type": "event"
    },
    {
      "anonymous": false,
      "inputs": [
        {
          "indexed": true,
          "internalType": "address",
          "name": "patientAddress",
          "type": "address"
        },
        {
          "indexed": false,
          "internalType": "string",
          "name": "_nombreP",
          "type": "string"
        },
        {
          "indexed": false,
          "internalType": "string",
          "name": "_apellidosP",
          "type": "string"
        },
        {
          "indexed": false,
          "internalType": "string",
          "name": "_telefonoP",
          "type": "string"
        },
        {
          "indexed": false,
          "internalType": "address",
          "name": "_adressP",
          "type": "address"
        },
        {
          "indexed": false,
          "internalType": "string",
          "name": "_correoP",
          "type": "string"
        },
        {
          "indexed": false,
          "internalType": "string",
          "name": "_passP",
          "type": "string"
        }
      ],
      "name": "PatientAdded",
      "type": "event"
    },
    {
      "inputs": [
        {
          "internalType": "address",
          "name": "",
          "type": "address"
        }
      ],
      "name": "patients",
      "outputs": [
        {
          "internalType": "string",
          "name": "nombreP",
          "type": "string"
        },
        {
          "internalType": "string",
          "name": "apellidosP",
          "type": "string"
        },
        {
          "internalType": "string",
          "name": "telefonoP",
          "type": "string"
        },
        {
          "internalType": "address",
          "name": "adressP",
          "type": "address"
        },
        {
          "internalType": "string",
          "name": "correoP",
          "type": "string"
        },
        {
          "internalType": "string",
          "name": "passP",
          "type": "string"
        },
        {
          "internalType": "bool",
          "name": "registrado",
          "type": "bool"
        }
      ],
      "stateMutability": "view",
      "type": "function",
      "constant": true
    },
    {
      "inputs": [
        {
          "internalType": "address",
          "name": "_adressP",
          "type": "address"
        },
        {
          "internalType": "address",
          "name": "_adressM",
          "type": "address"
        },
        {
          "internalType": "string",
          "name": "_patientName",
          "type": "string"
        },
        {
          "internalType": "uint256",
          "name": "_age",
          "type": "uint256"
        },
        {
          "internalType": "string",
          "name": "_diagnosis",
          "type": "string"
        },
        {
          "internalType": "string",
          "name": "_treatment",
          "type": "string"
        },
        {
          "internalType": "string",
          "name": "_date",
          "type": "string"
        },
        {
          "internalType": "string",
          "name": "_fileHash",
          "type": "string"
        }
      ],
      "name": "addRecord",
      "outputs": [],
      "stateMutability": "nonpayable",
      "type": "function"
    },
    {
      "inputs": [
        {
          "internalType": "address",
          "name": "_adressP",
          "type": "address"
        }
      ],
      "name": "getRecords",
      "outputs": [
        {
          "components": [
            {
              "internalType": "address",
              "name": "adressP",
              "type": "address"
            },
            {
              "internalType": "address",
              "name": "adressM",
              "type": "address"
            },
            {
              "internalType": "string",
              "name": "patientName",
              "type": "string"
            },
            {
              "internalType": "uint256",
              "name": "age",
              "type": "uint256"
            },
            {
              "internalType": "string",
              "name": "diagnosis",
              "type": "string"
            },
            {
              "internalType": "string",
              "name": "treatment",
              "type": "string"
            },
            {
              "internalType": "string",
              "name": "date",
              "type": "string"
            },
            {
              "internalType": "string",
              "name": "fileHash",
              "type": "string"
            }
          ],
          "internalType": "struct Contrato.MedicalRecord[]",
          "name": "",
          "type": "tuple[]"
        }
      ],
      "stateMutability": "view",
      "type": "function",
      "constant": true
    },
    {
      "inputs": [
        {
          "internalType": "string",
          "name": "_nombreP",
          "type": "string"
        },
        {
          "internalType": "string",
          "name": "_apellidosP",
          "type": "string"
        },
        {
          "internalType": "string",
          "name": "_telefonoP",
          "type": "string"
        },
        {
          "internalType": "address",
          "name": "_adressP",
          "type": "address"
        },
        {
          "internalType": "string",
          "name": "_correoP",
          "type": "string"
        },
        {
          "internalType": "string",
          "name": "_passP",
          "type": "string"
        }
      ],
      "name": "addPatient",
      "outputs": [],
      "stateMutability": "nonpayable",
      "type": "function"
    },
    {
      "inputs": [
        {
          "internalType": "address",
          "name": "_patientAddress",
          "type": "address"
        }
      ],
      "name": "patientExists",
      "outputs": [
        {
          "internalType": "bool",
          "name": "",
          "type": "bool"
        }
      ],
      "stateMutability": "view",
      "type": "function",
      "constant": true
    },
    {
      "inputs": [
        {
          "internalType": "address",
          "name": "_adress",
          "type": "address"
        },
        {
          "internalType": "string",
          "name": "_pass",
          "type": "string"
        }
      ],
      "name": "loginPatient",
      "outputs": [
        {
          "internalType": "bool",
          "name": "",
          "type": "bool"
        }
      ],
      "stateMutability": "nonpayable",
      "type": "function"
    },
    {
      "inputs": [
        {
          "internalType": "address",
          "name": "_patient",
          "type": "address"
        }
      ],
      "name": "getPatientInfo",
      "outputs": [
        {
          "internalType": "string",
          "name": "",
          "type": "string"
        },
        {
          "internalType": "string",
          "name": "",
          "type": "string"
        },
        {
          "internalType": "string",
          "name": "",
          "type": "string"
        },
        {
          "internalType": "address",
          "name": "",
          "type": "address"
        },
        {
          "internalType": "string",
          "name": "",
          "type": "string"
        },
        {
          "internalType": "string",
          "name": "",
          "type": "string"
        }
      ],
      "stateMutability": "view",
      "type": "function",
      "constant": true
    },
    {
      "inputs": [
        {
          "internalType": "string",
          "name": "_nombreM",
          "type": "string"
        },
        {
          "internalType": "string",
          "name": "_apellidosM",
          "type": "string"
        },
        {
          "internalType": "string",
          "name": "_telefonoM",
          "type": "string"
        },
        {
          "internalType": "address",
          "name": "_adressM",
          "type": "address"
        },
        {
          "internalType": "string",
          "name": "_correoM",
          "type": "string"
        },
        {
          "internalType": "string",
          "name": "_passM",
          "type": "string"
        },
        {
          "internalType": "string",
          "name": "_idM",
          "type": "string"
        },
        {
          "internalType": "string",
          "name": "_espM",
          "type": "string"
        }
      ],
      "name": "addMed",
      "outputs": [],
      "stateMutability": "nonpayable",
      "type": "function"
    },
    {
      "inputs": [
        {
          "internalType": "address",
          "name": "_patientAddress",
          "type": "address"
        }
      ],
      "name": "medExists",
      "outputs": [
        {
          "internalType": "bool",
          "name": "",
          "type": "bool"
        }
      ],
      "stateMutability": "view",
      "type": "function",
      "constant": true
    },
    {
      "inputs": [
        {
          "internalType": "address",
          "name": "_adress",
          "type": "address"
        },
        {
          "internalType": "string",
          "name": "_pass",
          "type": "string"
        }
      ],
      "name": "loginMed",
      "outputs": [
        {
          "internalType": "bool",
          "name": "",
          "type": "bool"
        }
      ],
      "stateMutability": "nonpayable",
      "type": "function"
    },
    {
      "inputs": [
        {
          "internalType": "address",
          "name": "_med",
          "type": "address"
        }
      ],
      "name": "getMedInfo",
      "outputs": [
        {
          "internalType": "string",
          "name": "",
          "type": "string"
        },
        {
          "internalType": "string",
          "name": "",
          "type": "string"
        },
        {
          "internalType": "string",
          "name": "",
          "type": "string"
        },
        {
          "internalType": "address",
          "name": "",
          "type": "address"
        },
        {
          "internalType": "string",
          "name": "",
          "type": "string"
        },
        {
          "internalType": "string",
          "name": "",
          "type": "string"
        },
        {
          "internalType": "string",
          "name": "",
          "type": "string"
        },
        {
          "internalType": "string",
          "name": "",
          "type": "string"
        }
      ],
      "stateMutability": "view",
      "type": "function",
      "constant": true
    }
  ],
  "bytecode": "0x608060405234801561001057600080fd5b50612edd806100206000396000f3fe608060405234801561001057600080fd5b50600436106100a95760003560e01c806351710f031161007157806351710f031461019c5780636186d417146101cc5780638ca8e40c146101fc578063a0076e8414610218578063d2927bcb14610248578063fbbc6dd914610264576100a9565b80630869cfbc146100ae5780632900ed00146100e45780632ff650c21461011b578063366130441461014b5780634b42617814610167575b600080fd5b6100c860048036038101906100c39190611f00565b610294565b6040516100db9796959493929190611fe7565b60405180910390f35b6100fe60048036038101906100f99190611f00565b6105ab565b604051610112989796959493929190612079565b60405180910390f35b6101356004803603810190610130919061225d565b610aba565b60405161014291906122b9565b60405180910390f35b610165600480360381019061016091906122d4565b610cdd565b005b610181600480360381019061017c9190611f00565b610f36565b604051610193969594939291906123ed565b60405180910390f35b6101b660048036038101906101b19190611f00565b61130d565b6040516101c391906122b9565b60405180910390f35b6101e660048036038101906101e1919061225d565b611366565b6040516101f391906122b9565b60405180910390f35b610216600480360381019061021191906124a7565b611589565b005b610232600480360381019061022d9190611f00565b61176e565b60405161023f91906127df565b60405180910390f35b610262600480360381019061025d9190612801565b611b9c565b005b61027e60048036038101906102799190611f00565b611e35565b60405161028b91906122b9565b60405180910390f35b60016020528060005260406000206000915090508060000180546102b7906129aa565b80601f01602080910402602001604051908101604052809291908181526020018280546102e3906129aa565b80156103305780601f1061030557610100808354040283529160200191610330565b820191906000526020600020905b81548152906001019060200180831161031357829003601f168201915b505050505090806001018054610345906129aa565b80601f0160208091040260200160405190810160405280929190818152602001828054610371906129aa565b80156103be5780601f10610393576101008083540402835291602001916103be565b820191906000526020600020905b8154815290600101906020018083116103a157829003601f168201915b5050505050908060020180546103d3906129aa565b80601f01602080910402602001604051908101604052809291908181526020018280546103ff906129aa565b801561044c5780601f106104215761010080835404028352916020019161044c565b820191906000526020600020905b81548152906001019060200180831161042f57829003601f168201915b5050505050908060030160009054906101000a900473ffffffffffffffffffffffffffffffffffffffff1690806004018054610487906129aa565b80601f01602080910402602001604051908101604052809291908181526020018280546104b3906129aa565b80156105005780601f106104d557610100808354040283529160200191610500565b820191906000526020600020905b8154815290600101906020018083116104e357829003601f168201915b505050505090806005018054610515906129aa565b80601f0160208091040260200160405190810160405280929190818152602001828054610541906129aa565b801561058e5780601f106105635761010080835404028352916020019161058e565b820191906000526020600020905b81548152906001019060200180831161057157829003601f168201915b5050505050908060060160009054906101000a900460ff16905087565b606080606060006060806060806000600260008b73ffffffffffffffffffffffffffffffffffffffff1673ffffffffffffffffffffffffffffffffffffffff16815260200190815260200160002060405180610120016040529081600082018054610615906129aa565b80601f0160208091040260200160405190810160405280929190818152602001828054610641906129aa565b801561068e5780601f106106635761010080835404028352916020019161068e565b820191906000526020600020905b81548152906001019060200180831161067157829003601f168201915b505050505081526020016001820180546106a7906129aa565b80601f01602080910402602001604051908101604052809291908181526020018280546106d3906129aa565b80156107205780601f106106f557610100808354040283529160200191610720565b820191906000526020600020905b81548152906001019060200180831161070357829003601f168201915b50505050508152602001600282018054610739906129aa565b80601f0160208091040260200160405190810160405280929190818152602001828054610765906129aa565b80156107b25780601f10610787576101008083540402835291602001916107b2565b820191906000526020600020905b81548152906001019060200180831161079557829003601f168201915b505050505081526020016003820160009054906101000a900473ffffffffffffffffffffffffffffffffffffffff1673ffffffffffffffffffffffffffffffffffffffff1673ffffffffffffffffffffffffffffffffffffffff168152602001600482018054610821906129aa565b80601f016020809104026020016040519081016040528092919081815260200182805461084d906129aa565b801561089a5780601f1061086f5761010080835404028352916020019161089a565b820191906000526020600020905b81548152906001019060200180831161087d57829003601f168201915b505050505081526020016005820180546108b3906129aa565b80601f01602080910402602001604051908101604052809291908181526020018280546108df906129aa565b801561092c5780601f106109015761010080835404028352916020019161092c565b820191906000526020600020905b81548152906001019060200180831161090f57829003601f168201915b50505050508152602001600682018054610945906129aa565b80601f0160208091040260200160405190810160405280929190818152602001828054610971906129aa565b80156109be5780601f10610993576101008083540402835291602001916109be565b820191906000526020600020905b8154815290600101906020018083116109a157829003601f168201915b505050505081526020016007820180546109d7906129aa565b80601f0160208091040260200160405190810160405280929190818152602001828054610a03906129aa565b8015610a505780601f10610a2557610100808354040283529160200191610a50565b820191906000526020600020905b815481529060010190602001808311610a3357829003601f168201915b505050505081526020016008820160009054906101000a900460ff1615151515815250509050806000015181602001518260400151836060015184608001518560a001518660c001518760e001519850985098509850985098509850985050919395975091939597565b600081604051602001610acd9190612a17565b60405160208183030381529060405280519060200120600160008573ffffffffffffffffffffffffffffffffffffffff1673ffffffffffffffffffffffffffffffffffffffff168152602001908152602001600020600501604051602001610b359190612ac6565b6040516020818303038152906040528051906020012014610b8b576040517f08c379a0000000000000000000000000000000000000000000000000000000008152600401610b8290612b29565b60405180910390fd5b82604051602001610b9c9190612b91565b60405160208183030381529060405280519060200120600160008573ffffffffffffffffffffffffffffffffffffffff1673ffffffffffffffffffffffffffffffffffffffff16815260200190815260200160002060030160009054906101000a900473ffffffffffffffffffffffffffffffffffffffff16604051602001610c259190612b91565b6040516020818303038152906040528051906020012014610c7b576040517f08c379a0000000000000000000000000000000000000000000000000000000008152600401610c7290612b29565b60405180910390fd5b6001600360003373ffffffffffffffffffffffffffffffffffffffff1673ffffffffffffffffffffffffffffffffffffffff16815260200190815260200160002060006101000a81548160ff0219169083151502179055506001905092915050565b600160008473ffffffffffffffffffffffffffffffffffffffff1673ffffffffffffffffffffffffffffffffffffffff16815260200190815260200160002060060160009054906101000a900460ff1615610d6d576040517f08c379a0000000000000000000000000000000000000000000000000000000008152600401610d6490612c1e565b60405180910390fd5b60006040518060e001604052808881526020018781526020018681526020018573ffffffffffffffffffffffffffffffffffffffff16815260200184815260200183815260200160011515815250905080600160003373ffffffffffffffffffffffffffffffffffffffff1673ffffffffffffffffffffffffffffffffffffffff1681526020019081526020016000206000820151816000019081610e129190612dd5565b506020820151816001019081610e289190612dd5565b506040820151816002019081610e3e9190612dd5565b5060608201518160030160006101000a81548173ffffffffffffffffffffffffffffffffffffffff021916908373ffffffffffffffffffffffffffffffffffffffff1602179055506080820151816004019081610e9b9190612dd5565b5060a0820151816005019081610eb19190612dd5565b5060c08201518160060160006101000a81548160ff0219169083151502179055509050503373ffffffffffffffffffffffffffffffffffffffff167f356d59a8d1aab1bf7f5712305ebf753c65a0a1d438bc71c919cb1f14905dff54888888888888604051610f25969594939291906123ed565b60405180910390a250505050505050565b606080606060006060806000600160008973ffffffffffffffffffffffffffffffffffffffff1673ffffffffffffffffffffffffffffffffffffffff1681526020019081526020016000206040518060e0016040529081600082018054610f9c906129aa565b80601f0160208091040260200160405190810160405280929190818152602001828054610fc8906129aa565b80156110155780601f10610fea57610100808354040283529160200191611015565b820191906000526020600020905b815481529060010190602001808311610ff857829003601f168201915b5050505050815260200160018201805461102e906129aa565b80601f016020809104026020016040519081016040528092919081815260200182805461105a906129aa565b80156110a75780601f1061107c576101008083540402835291602001916110a7565b820191906000526020600020905b81548152906001019060200180831161108a57829003601f168201915b505050505081526020016002820180546110c0906129aa565b80601f01602080910402602001604051908101604052809291908181526020018280546110ec906129aa565b80156111395780601f1061110e57610100808354040283529160200191611139565b820191906000526020600020905b81548152906001019060200180831161111c57829003601f168201915b505050505081526020016003820160009054906101000a900473ffffffffffffffffffffffffffffffffffffffff1673ffffffffffffffffffffffffffffffffffffffff1673ffffffffffffffffffffffffffffffffffffffff1681526020016004820180546111a8906129aa565b80601f01602080910402602001604051908101604052809291908181526020018280546111d4906129aa565b80156112215780601f106111f657610100808354040283529160200191611221565b820191906000526020600020905b81548152906001019060200180831161120457829003601f168201915b5050505050815260200160058201805461123a906129aa565b80601f0160208091040260200160405190810160405280929190818152602001828054611266906129aa565b80156112b35780601f10611288576101008083540402835291602001916112b3565b820191906000526020600020905b81548152906001019060200180831161129657829003601f168201915b505050505081526020016006820160009054906101000a900460ff1615151515815250509050806000015181602001518260400151836060015184608001518560a001519650965096509650965096505091939550919395565b6000600160008373ffffffffffffffffffffffffffffffffffffffff1673ffffffffffffffffffffffffffffffffffffffff16815260200190815260200160002060060160009054906101000a900460ff169050919050565b6000816040516020016113799190612a17565b60405160208183030381529060405280519060200120600260008573ffffffffffffffffffffffffffffffffffffffff1673ffffffffffffffffffffffffffffffffffffffff1681526020019081526020016000206005016040516020016113e19190612ac6565b6040516020818303038152906040528051906020012014611437576040517f08c379a000000000000000000000000000000000000000000000000000000000815260040161142e90612b29565b60405180910390fd5b826040516020016114489190612b91565b60405160208183030381529060405280519060200120600260008573ffffffffffffffffffffffffffffffffffffffff1673ffffffffffffffffffffffffffffffffffffffff16815260200190815260200160002060030160009054906101000a900473ffffffffffffffffffffffffffffffffffffffff166040516020016114d19190612b91565b6040516020818303038152906040528051906020012014611527576040517f08c379a000000000000000000000000000000000000000000000000000000000815260040161151e90612b29565b60405180910390fd5b6001600460003373ffffffffffffffffffffffffffffffffffffffff1673ffffffffffffffffffffffffffffffffffffffff16815260200190815260200160002060006101000a81548160ff0219169083151502179055506001905092915050565b60006040518061010001604052808a73ffffffffffffffffffffffffffffffffffffffff1681526020018973ffffffffffffffffffffffffffffffffffffffff1681526020018881526020018781526020018681526020018581526020018481526020018381525090506000808a73ffffffffffffffffffffffffffffffffffffffff1673ffffffffffffffffffffffffffffffffffffffff16815260200190815260200160002081908060018154018082558091505060019003906000526020600020906008020160009091909190915060008201518160000160006101000a81548173ffffffffffffffffffffffffffffffffffffffff021916908373ffffffffffffffffffffffffffffffffffffffff16021790555060208201518160010160006101000a81548173ffffffffffffffffffffffffffffffffffffffff021916908373ffffffffffffffffffffffffffffffffffffffff16021790555060408201518160020190816116fe9190612dd5565b5060608201518160030155608082015181600401908161171e9190612dd5565b5060a08201518160050190816117349190612dd5565b5060c082015181600601908161174a9190612dd5565b5060e08201518160070190816117609190612dd5565b505050505050505050505050565b60606000808373ffffffffffffffffffffffffffffffffffffffff1673ffffffffffffffffffffffffffffffffffffffff168152602001908152602001600020805480602002602001604051908101604052809291908181526020016000905b82821015611b915783829060005260206000209060080201604051806101000160405290816000820160009054906101000a900473ffffffffffffffffffffffffffffffffffffffff1673ffffffffffffffffffffffffffffffffffffffff1673ffffffffffffffffffffffffffffffffffffffff1681526020016001820160009054906101000a900473ffffffffffffffffffffffffffffffffffffffff1673ffffffffffffffffffffffffffffffffffffffff1673ffffffffffffffffffffffffffffffffffffffff1681526020016002820180546118ae906129aa565b80601f01602080910402602001604051908101604052809291908181526020018280546118da906129aa565b80156119275780601f106118fc57610100808354040283529160200191611927565b820191906000526020600020905b81548152906001019060200180831161190a57829003601f168201915b505050505081526020016003820154815260200160048201805461194a906129aa565b80601f0160208091040260200160405190810160405280929190818152602001828054611976906129aa565b80156119c35780601f10611998576101008083540402835291602001916119c3565b820191906000526020600020905b8154815290600101906020018083116119a657829003601f168201915b505050505081526020016005820180546119dc906129aa565b80601f0160208091040260200160405190810160405280929190818152602001828054611a08906129aa565b8015611a555780601f10611a2a57610100808354040283529160200191611a55565b820191906000526020600020905b815481529060010190602001808311611a3857829003601f168201915b50505050508152602001600682018054611a6e906129aa565b80601f0160208091040260200160405190810160405280929190818152602001828054611a9a906129aa565b8015611ae75780601f10611abc57610100808354040283529160200191611ae7565b820191906000526020600020905b815481529060010190602001808311611aca57829003601f168201915b50505050508152602001600782018054611b00906129aa565b80601f0160208091040260200160405190810160405280929190818152602001828054611b2c906129aa565b8015611b795780601f10611b4e57610100808354040283529160200191611b79565b820191906000526020600020905b815481529060010190602001808311611b5c57829003601f168201915b505050505081525050815260200190600101906117ce565b505050509050919050565b600260008673ffffffffffffffffffffffffffffffffffffffff1673ffffffffffffffffffffffffffffffffffffffff16815260200190815260200160002060080160009054906101000a900460ff1615611c2c576040517f08c379a0000000000000000000000000000000000000000000000000000000008152600401611c2390612c1e565b60405180910390fd5b60006040518061012001604052808a81526020018981526020018881526020018773ffffffffffffffffffffffffffffffffffffffff16815260200186815260200185815260200184815260200183815260200160011515815250905080600260003373ffffffffffffffffffffffffffffffffffffffff1673ffffffffffffffffffffffffffffffffffffffff1681526020019081526020016000206000820151816000019081611cde9190612dd5565b506020820151816001019081611cf49190612dd5565b506040820151816002019081611d0a9190612dd5565b5060608201518160030160006101000a81548173ffffffffffffffffffffffffffffffffffffffff021916908373ffffffffffffffffffffffffffffffffffffffff1602179055506080820151816004019081611d679190612dd5565b5060a0820151816005019081611d7d9190612dd5565b5060c0820151816006019081611d939190612dd5565b5060e0820151816007019081611da99190612dd5565b506101008201518160080160006101000a81548160ff0219169083151502179055509050503373ffffffffffffffffffffffffffffffffffffffff167f618af81ee8ab9d4da14c13a91ade4243f53240db6ea00b5161d3d8d47ffb1efb8a8a8a8a8a8a8a8a604051611e22989796959493929190612079565b60405180910390a2505050505050505050565b6000600260008373ffffffffffffffffffffffffffffffffffffffff1673ffffffffffffffffffffffffffffffffffffffff16815260200190815260200160002060080160009054906101000a900460ff169050919050565b6000604051905090565b600080fd5b600080fd5b600073ffffffffffffffffffffffffffffffffffffffff82169050919050565b6000611ecd82611ea2565b9050919050565b611edd81611ec2565b8114611ee857600080fd5b50565b600081359050611efa81611ed4565b92915050565b600060208284031215611f1657611f15611e98565b5b6000611f2484828501611eeb565b91505092915050565b600081519050919050565b600082825260208201905092915050565b60005b83811015611f67578082015181840152602081019050611f4c565b60008484015250505050565b6000601f19601f8301169050919050565b6000611f8f82611f2d565b611f998185611f38565b9350611fa9818560208601611f49565b611fb281611f73565b840191505092915050565b611fc681611ec2565b82525050565b60008115159050919050565b611fe181611fcc565b82525050565b600060e0820190508181036000830152612001818a611f84565b905081810360208301526120158189611f84565b905081810360408301526120298188611f84565b90506120386060830187611fbd565b818103608083015261204a8186611f84565b905081810360a083015261205e8185611f84565b905061206d60c0830184611fd8565b98975050505050505050565b6000610100820190508181036000830152612094818b611f84565b905081810360208301526120a8818a611f84565b905081810360408301526120bc8189611f84565b90506120cb6060830188611fbd565b81810360808301526120dd8187611f84565b905081810360a08301526120f18186611f84565b905081810360c08301526121058185611f84565b905081810360e08301526121198184611f84565b90509998505050505050505050565b600080fd5b600080fd5b7f4e487b7100000000000000000000000000000000000000000000000000000000600052604160045260246000fd5b61216a82611f73565b810181811067ffffffffffffffff8211171561218957612188612132565b5b80604052505050565b600061219c611e8e565b90506121a88282612161565b919050565b600067ffffffffffffffff8211156121c8576121c7612132565b5b6121d182611f73565b9050602081019050919050565b82818337600083830152505050565b60006122006121fb846121ad565b612192565b90508281526020810184848401111561221c5761221b61212d565b5b6122278482856121de565b509392505050565b600082601f83011261224457612243612128565b5b81356122548482602086016121ed565b91505092915050565b6000806040838503121561227457612273611e98565b5b600061228285828601611eeb565b925050602083013567ffffffffffffffff8111156122a3576122a2611e9d565b5b6122af8582860161222f565b9150509250929050565b60006020820190506122ce6000830184611fd8565b92915050565b60008060008060008060c087890312156122f1576122f0611e98565b5b600087013567ffffffffffffffff81111561230f5761230e611e9d565b5b61231b89828a0161222f565b965050602087013567ffffffffffffffff81111561233c5761233b611e9d565b5b61234889828a0161222f565b955050604087013567ffffffffffffffff81111561236957612368611e9d565b5b61237589828a0161222f565b945050606061238689828a01611eeb565b935050608087013567ffffffffffffffff8111156123a7576123a6611e9d565b5b6123b389828a0161222f565b92505060a087013567ffffffffffffffff8111156123d4576123d3611e9d565b5b6123e089828a0161222f565b9150509295509295509295565b600060c08201905081810360008301526124078189611f84565b9050818103602083015261241b8188611f84565b9050818103604083015261242f8187611f84565b905061243e6060830186611fbd565b81810360808301526124508185611f84565b905081810360a08301526124648184611f84565b9050979650505050505050565b6000819050919050565b61248481612471565b811461248f57600080fd5b50565b6000813590506124a18161247b565b92915050565b600080600080600080600080610100898b0312156124c8576124c7611e98565b5b60006124d68b828c01611eeb565b98505060206124e78b828c01611eeb565b975050604089013567ffffffffffffffff81111561250857612507611e9d565b5b6125148b828c0161222f565b96505060606125258b828c01612492565b955050608089013567ffffffffffffffff81111561254657612545611e9d565b5b6125528b828c0161222f565b94505060a089013567ffffffffffffffff81111561257357612572611e9d565b5b61257f8b828c0161222f565b93505060c089013567ffffffffffffffff8111156125a05761259f611e9d565b5b6125ac8b828c0161222f565b92505060e089013567ffffffffffffffff8111156125cd576125cc611e9d565b5b6125d98b828c0161222f565b9150509295985092959890939650565b600081519050919050565b600082825260208201905092915050565b6000819050602082019050919050565b61261e81611ec2565b82525050565b600082825260208201905092915050565b600061264082611f2d565b61264a8185612624565b935061265a818560208601611f49565b61266381611f73565b840191505092915050565b61267781612471565b82525050565b6000610100830160008301516126966000860182612615565b5060208301516126a96020860182612615565b50604083015184820360408601526126c18282612635565b91505060608301516126d6606086018261266e565b50608083015184820360808601526126ee8282612635565b91505060a083015184820360a08601526127088282612635565b91505060c083015184820360c08601526127228282612635565b91505060e083015184820360e086015261273c8282612635565b9150508091505092915050565b6000612755838361267d565b905092915050565b6000602082019050919050565b6000612775826125e9565b61277f81856125f4565b93508360208202850161279185612605565b8060005b858110156127cd57848403895281516127ae8582612749565b94506127b98361275d565b925060208a01995050600181019050612795565b50829750879550505050505092915050565b600060208201905081810360008301526127f9818461276a565b905092915050565b600080600080600080600080610100898b03121561282257612821611e98565b5b600089013567ffffffffffffffff8111156128405761283f611e9d565b5b61284c8b828c0161222f565b985050602089013567ffffffffffffffff81111561286d5761286c611e9d565b5b6128798b828c0161222f565b975050604089013567ffffffffffffffff81111561289a57612899611e9d565b5b6128a68b828c0161222f565b96505060606128b78b828c01611eeb565b955050608089013567ffffffffffffffff8111156128d8576128d7611e9d565b5b6128e48b828c0161222f565b94505060a089013567ffffffffffffffff81111561290557612904611e9d565b5b6129118b828c0161222f565b93505060c089013567ffffffffffffffff81111561293257612931611e9d565b5b61293e8b828c0161222f565b92505060e089013567ffffffffffffffff81111561295f5761295e611e9d565b5b61296b8b828c0161222f565b9150509295985092959890939650565b7f4e487b7100000000000000000000000000000000000000000000000000000000600052602260045260246000fd5b600060028204905060018216806129c257607f821691505b6020821081036129d5576129d461297b565b5b50919050565b600081905092915050565b60006129f182611f2d565b6129fb81856129db565b9350612a0b818560208601611f49565b80840191505092915050565b6000612a2382846129e6565b915081905092915050565b60008190508160005260206000209050919050565b60008154612a50816129aa565b612a5a81866129db565b94506001821660008114612a755760018114612a8a57612abd565b60ff1983168652811515820286019350612abd565b612a9385612a2e565b60005b83811015612ab557815481890152600182019150602081019050612a96565b838801955050505b50505092915050565b6000612ad28284612a43565b915081905092915050565b7f496e636f727265637420757365726e616d65206f722070617373776f72642e00600082015250565b6000612b13601f83611f38565b9150612b1e82612add565b602082019050919050565b60006020820190508181036000830152612b4281612b06565b9050919050565b60008160601b9050919050565b6000612b6182612b49565b9050919050565b6000612b7382612b56565b9050919050565b612b8b612b8682611ec2565b612b68565b82525050565b6000612b9d8284612b7a565b60148201915081905092915050565b7f456c207573756172696f2079612065786973746520656e20656c206d6170706960008201527f6e67000000000000000000000000000000000000000000000000000000000000602082015250565b6000612c08602283611f38565b9150612c1382612bac565b604082019050919050565b60006020820190508181036000830152612c3781612bfb565b9050919050565b60006020601f8301049050919050565b600082821b905092915050565b600060088302612c8b7fffffffffffffffffffffffffffffffffffffffffffffffffffffffffffffffff82612c4e565b612c958683612c4e565b95508019841693508086168417925050509392505050565b6000819050919050565b6000612cd2612ccd612cc884612471565b612cad565b612471565b9050919050565b6000819050919050565b612cec83612cb7565b612d00612cf882612cd9565b848454612c5b565b825550505050565b600090565b612d15612d08565b612d20818484612ce3565b505050565b5b81811015612d4457612d39600082612d0d565b600181019050612d26565b5050565b601f821115612d8957612d5a81612a2e565b612d6384612c3e565b81016020851015612d72578190505b612d86612d7e85612c3e565b830182612d25565b50505b505050565b600082821c905092915050565b6000612dac60001984600802612d8e565b1980831691505092915050565b6000612dc58383612d9b565b9150826002028217905092915050565b612dde82611f2d565b67ffffffffffffffff811115612df757612df6612132565b5b612e0182546129aa565b612e0c828285612d48565b600060209050601f831160018114612e3f5760008415612e2d578287015190505b612e378582612db9565b865550612e9f565b601f198416612e4d86612a2e565b60005b82811015612e7557848901518255600182019150602085019450602081019050612e50565b86831015612e925784890151612e8e601f891682612d9b565b8355505b6001600288020188555050505b50505050505056fea264697066735822122065414cbc00f481c2435f2b9da0e7a4fc203a3e1fa2d5ad39c8cbb1b7730f2e4164736f6c63430008110033",
  "immutableReferences": {},
  "source": "//SPDX-License-Identifier: MIT\npragma solidity >=0.4.22 <0.9.0;\n\ncontract Contrato {\n//------------------------------------declaracion de estructuras para variables\n    struct MedicalRecord {\n        address adressP;\n        address adressM;\n        string patientName;\n        uint age;\n        string diagnosis;\n        string treatment;\n        string date;\n        string fileHash;\n    }\n    struct Patient {\n        string   nombreP;\n        string   apellidosP;\n        string   telefonoP;\n        address   adressP;\n        string   correoP;\n        string   passP;\n        bool registrado;\n    }\n    struct Med {\n        string   nombreM;\n        string   apellidosM;\n        string   telefonoM;\n        address   adressM;\n        string   correoM;\n        string   passM;\n        string    idM;\n        string   espM;\n        bool registrado;\n    }\n\n//-------------------------------------------------------- Mapeo \n    mapping (address => MedicalRecord[]) records;\n    mapping (address => Patient) public patients;\n    mapping (address => Med) meds;\n    mapping(address => bool) authenticatedPatients;\n    mapping(address => bool) authenticatedMed;\n    mapping(string => bool) idInUse;\n\n//-----------------------------------------------------Funciones\n\n    function addRecord(address _adressP, address _adressM, string memory _patientName, uint _age, string memory _diagnosis, \n        string memory _treatment,string memory _date,string memory _fileHash) public {\n        MedicalRecord memory newRecord = MedicalRecord({\n                                                        adressP: _adressP,\n                                                        adressM: _adressM,\n                                                        patientName: _patientName,\n                                                        age: _age,\n                                                        diagnosis: _diagnosis,\n                                                        treatment: _treatment,\n                                                        date: _date,\n                                                        fileHash: _fileHash});\n        records[_adressP].push(newRecord);\n    }\n\n    // Funcin para consultar todos los expedientes de un paciente\n    function getRecords(address _adressP) public view returns (MedicalRecord[] memory) {\n        return records[_adressP];\n    }\n\n    // Funcin para consultar un expediente clnico\n    //function getRecord(address _adressP, uint indice) public view returns (address, string, string) {\n    //    Expediente memory expediente = expedientes[paciente][indice];\n    //    return (expediente.paciente, expediente.historialMedico, expediente.tratamiento);\n    //}\n\n    // Evento que se desencadena al agregar un paciente\n    event PatientAdded(address indexed patientAddress, string  _nombreP, string  _apellidosP, string  _telefonoP, address  _adressP,\n        string  _correoP,string  _passP);\n\n    // Funcin nuevo paciente\n    function addPatient(string memory  _nombreP, string memory  _apellidosP, string memory  _telefonoP, address  _adressP,\n        string memory  _correoP, string memory  _passP) public {\n        // Comprobar si el usuario ya existe en el mapping\n        if (patients[_adressP].registrado) {\n            // Enviar una excepcin si el usuario ya existe\n            revert(\"El usuario ya existe en el mapping\");\n        }\n        // Crea una nueva instancia del paciente\n        Patient memory newPatient = Patient({\n                                                nombreP:_nombreP, \n                                                apellidosP:_apellidosP,\n                                                telefonoP: _telefonoP,\n                                                adressP:_adressP,\n                                                correoP:_correoP,\n                                                passP:_passP,\n                                                registrado:true});\n        // Asigna el paciente al mapeo\n        //patients[_id] = Patient(_name, _id, _age, _gender, _address);\n        patients[msg.sender] = newPatient;\n        // Desencadena el evento\n        emit PatientAdded(msg.sender,_nombreP, _apellidosP, _telefonoP,_adressP,_correoP,_passP);\n    }\n\n    function patientExists(address _patientAddress) public view returns (bool) {\n    return patients[_patientAddress].registrado;\n    }\n\n    // Funcin Iniciar sesion paciente\n    function loginPatient(address  _adress, string memory   _pass) public returns (bool) {\n            require(keccak256(abi.encodePacked(patients[_adress].passP)) ==  keccak256(abi.encodePacked(_pass)), \"Incorrect username or password.\");\n            require(keccak256(abi.encodePacked(patients[_adress].adressP)) ==  keccak256(abi.encodePacked(_adress)), \"Incorrect username or password.\");\n            authenticatedPatients[msg.sender] = true;\n            return true;      \n    }\n\n    // Funcin para recuperar la informacin paciente\n    function getPatientInfo(address _patient) public view returns (string memory , string memory, string memory , address ,\n        string memory , string memory ) {\n        Patient memory patient = patients[_patient];\n        return (patient.nombreP, patient.apellidosP, patient.telefonoP,patient.adressP, patient.correoP, patient.passP);\n    }\n\n    // Evento que se desencadena al agregar un medico\n    event MedAdded(address indexed medAddress, string  _nombreM, string  _apellidosM, string  _telefonoM,address  _adressM,\n        string  _correoM, string  _passM, string  _idM, string  _espM);\n\n    // Funcin nuevo trabajador de la salud\n    function addMed(string memory  _nombreM, string memory  _apellidosM, string memory  _telefonoM, address  _adressM,\n        string memory  _correoM, string memory  _passM, string memory  _idM, string memory  _espM) public {\n        // Comprobar si el usuario ya existe en el mapping\n        if (meds[_adressM].registrado) {\n            // Enviar una excepcin si el usuario ya existe\n            revert(\"El usuario ya existe en el mapping\");\n        }\n        // // Verifica si el string dado est en la lista de id autorizados\n        // require(checkID[_idM], \"El id de empleado no existe\");\n        // checkID[_idM] = false;\n        // require(!idInUse[_idM], \"Este id ya esta en uso\"); \n        // idInUse[_idM]=true;\n        // Crea una nueva instancia del paciente\n        Med memory newMed = Med({\n                                                nombreM:_nombreM, \n                                                apellidosM:_apellidosM,\n                                                telefonoM: _telefonoM,\n                                                adressM:_adressM,\n                                                correoM:_correoM,\n                                                passM:_passM,\n                                                idM:_idM,\n                                                espM:_espM,\n                                                registrado:true});\n        // Asigna el paciente al mapeo\n        //patients[_id] = Patient(_name, _id, _age, _gender, _address);\n        meds[msg.sender] = newMed;\n        // Desencadena el evento\n        emit MedAdded(msg.sender,_nombreM, _apellidosM, _telefonoM,_adressM,_correoM,_passM,_idM,_espM);\n    }\n\n    function medExists(address _patientAddress) public view returns (bool) {\n    return meds[_patientAddress].registrado;\n    }\n\n    // Funcin Iniciar trabajador de la salud\n    function loginMed(address  _adress, string memory   _pass) public returns (bool) {\n            require(keccak256(abi.encodePacked(meds[_adress].passM)) ==  keccak256(abi.encodePacked(_pass)), \"Incorrect username or password.\");\n            require(keccak256(abi.encodePacked(meds[_adress].adressM)) ==  keccak256(abi.encodePacked(_adress)), \"Incorrect username or password.\");\n            authenticatedMed[msg.sender] = true;\n            return true;\n    }\n\n    // Funcin para recuperar la informacin trabajador de la salud\n    function getMedInfo(address _med) public view returns (string memory , string memory, string memory ,address ,string memory ,\n        string memory, string memory, string memory ) {\n        Med memory med = meds[_med];\n        return (med.nombreM, med.apellidosM, med.telefonoM,med.adressM, med.correoM, med.passM, med.idM, med.espM);\n    }\n\n}\n",
  "sourcePath": "/home/eera/Documents/proyecto/dapp-hospital/contracts/Contrato.sol",
  "compiler": {
    "name": "solc",
    "version": "0.8.17+commit.8df45f5f.Emscripten.clang"
  },
  "schemaVersion": "3.4.11",
  "updatedAt": "2023-02-13T18:06:02.677Z",
  "networkType": "ethereum",
  "devdoc": {
    "kind": "dev",
    "methods": {},
    "version": 1
  },
  "userdoc": {
    "kind": "user",
    "methods": {},
    "version": 1
  }
}